{
  "contractName": "Db",
  "abi": [
    {
      "constant": false,
      "inputs": [],
      "name": "renounceOwnership",
      "outputs": [],
      "payable": false,
      "stateMutability": "nonpayable",
      "type": "function"
    },
    {
      "constant": true,
      "inputs": [],
      "name": "owner",
      "outputs": [
        {
          "name": "",
          "type": "address"
        }
      ],
      "payable": false,
      "stateMutability": "view",
      "type": "function"
    },
    {
      "constant": true,
      "inputs": [],
      "name": "isOwner",
      "outputs": [
        {
          "name": "",
          "type": "bool"
        }
      ],
      "payable": false,
      "stateMutability": "view",
      "type": "function"
    },
    {
      "constant": false,
      "inputs": [
        {
          "name": "newOwner",
          "type": "address"
        }
      ],
      "name": "transferOwnership",
      "outputs": [],
      "payable": false,
      "stateMutability": "nonpayable",
      "type": "function"
    },
    {
      "inputs": [],
      "payable": false,
      "stateMutability": "nonpayable",
      "type": "constructor"
    },
    {
      "anonymous": false,
      "inputs": [
        {
          "indexed": true,
          "name": "contractAddress",
          "type": "address"
        },
        {
          "indexed": false,
          "name": "allowed",
          "type": "bool"
        }
      ],
      "name": "StorageModified",
      "type": "event"
    },
    {
      "anonymous": false,
      "inputs": [
        {
          "indexed": true,
          "name": "previousOwner",
          "type": "address"
        }
      ],
      "name": "OwnershipRenounced",
      "type": "event"
    },
    {
      "anonymous": false,
      "inputs": [
        {
          "indexed": true,
          "name": "previousOwner",
          "type": "address"
        },
        {
          "indexed": true,
          "name": "newOwner",
          "type": "address"
        }
      ],
      "name": "OwnershipTransferred",
      "type": "event"
    },
    {
      "constant": false,
      "inputs": [
        {
          "name": "_storageContract",
          "type": "address"
        },
        {
          "name": "_allowed",
          "type": "bool"
        }
      ],
      "name": "setStorageContract",
      "outputs": [],
      "payable": false,
      "stateMutability": "nonpayable",
      "type": "function"
    },
    {
      "constant": true,
      "inputs": [
        {
          "name": "key",
          "type": "bytes32"
        }
      ],
      "name": "getBytes32",
      "outputs": [
        {
          "name": "",
          "type": "bytes32"
        }
      ],
      "payable": false,
      "stateMutability": "view",
      "type": "function"
    },
    {
      "constant": false,
      "inputs": [
        {
          "name": "key",
          "type": "bytes32"
        },
        {
          "name": "value",
          "type": "bytes32"
        }
      ],
      "name": "setBytes32",
      "outputs": [],
      "payable": false,
      "stateMutability": "nonpayable",
      "type": "function"
    },
    {
      "constant": true,
      "inputs": [
        {
          "name": "key",
          "type": "bytes32"
        }
      ],
      "name": "getNumber",
      "outputs": [
        {
          "name": "",
          "type": "uint256"
        }
      ],
      "payable": false,
      "stateMutability": "view",
      "type": "function"
    },
    {
      "constant": false,
      "inputs": [
        {
          "name": "key",
          "type": "bytes32"
        },
        {
          "name": "value",
          "type": "uint256"
        }
      ],
      "name": "setNumber",
      "outputs": [],
      "payable": false,
      "stateMutability": "nonpayable",
      "type": "function"
    },
    {
      "constant": true,
      "inputs": [
        {
          "name": "key",
          "type": "bytes32"
        }
      ],
      "name": "getBytes",
      "outputs": [
        {
          "name": "",
          "type": "bytes"
        }
      ],
      "payable": false,
      "stateMutability": "view",
      "type": "function"
    },
    {
      "constant": false,
      "inputs": [
        {
          "name": "key",
          "type": "bytes32"
        },
        {
          "name": "value",
          "type": "bytes"
        }
      ],
      "name": "setBytes",
      "outputs": [],
      "payable": false,
      "stateMutability": "nonpayable",
      "type": "function"
    },
    {
      "constant": true,
      "inputs": [
        {
          "name": "key",
          "type": "bytes32"
        }
      ],
      "name": "getString",
      "outputs": [
        {
          "name": "",
          "type": "string"
        }
      ],
      "payable": false,
      "stateMutability": "view",
      "type": "function"
    },
    {
      "constant": false,
      "inputs": [
        {
          "name": "key",
          "type": "bytes32"
        },
        {
          "name": "value",
          "type": "string"
        }
      ],
      "name": "setString",
      "outputs": [],
      "payable": false,
      "stateMutability": "nonpayable",
      "type": "function"
    },
    {
      "constant": false,
      "inputs": [
        {
          "name": "key",
          "type": "bytes32"
        },
        {
          "name": "add",
          "type": "address"
        }
      ],
      "name": "setAddress",
      "outputs": [],
      "payable": false,
      "stateMutability": "nonpayable",
      "type": "function"
    },
    {
      "constant": true,
      "inputs": [
        {
          "name": "key",
          "type": "bytes32"
        }
      ],
      "name": "getAddress",
      "outputs": [
        {
          "name": "",
          "type": "address"
        }
      ],
      "payable": false,
      "stateMutability": "view",
      "type": "function"
    },
    {
      "constant": true,
      "inputs": [
        {
          "name": "key",
          "type": "bytes32"
        }
      ],
      "name": "getBytesArray",
      "outputs": [
        {
          "name": "",
          "type": "bytes32[]"
        }
      ],
      "payable": false,
      "stateMutability": "view",
      "type": "function"
    },
    {
      "constant": true,
      "inputs": [
        {
          "name": "key",
          "type": "bytes32"
        },
        {
          "name": "index",
          "type": "uint256"
        }
      ],
      "name": "getBytesArrayIndex",
      "outputs": [
        {
          "name": "",
          "type": "bytes32"
        }
      ],
      "payable": false,
      "stateMutability": "view",
      "type": "function"
    },
    {
      "constant": true,
      "inputs": [
        {
          "name": "key",
          "type": "bytes32"
        }
      ],
      "name": "getBytesArrayLength",
      "outputs": [
        {
          "name": "",
          "type": "uint256"
        }
      ],
      "payable": false,
      "stateMutability": "view",
      "type": "function"
    },
    {
      "constant": false,
      "inputs": [
        {
          "name": "key",
          "type": "bytes32"
        },
        {
          "name": "value",
          "type": "bytes32"
        }
      ],
      "name": "pushBytesArray",
      "outputs": [],
      "payable": false,
      "stateMutability": "nonpayable",
      "type": "function"
    },
    {
      "constant": false,
      "inputs": [
        {
          "name": "key",
          "type": "bytes32"
        },
        {
          "name": "index",
          "type": "uint256"
        },
        {
          "name": "value",
          "type": "bytes32"
        }
      ],
      "name": "setBytesArrayIndex",
      "outputs": [],
      "payable": false,
      "stateMutability": "nonpayable",
      "type": "function"
    },
    {
      "constant": false,
      "inputs": [
        {
          "name": "key",
          "type": "bytes32"
        },
        {
          "name": "value",
          "type": "bytes32[]"
        }
      ],
      "name": "setBytesArray",
      "outputs": [],
      "payable": false,
      "stateMutability": "nonpayable",
      "type": "function"
    },
    {
      "constant": true,
      "inputs": [
        {
          "name": "key",
          "type": "bytes32"
        }
      ],
      "name": "getIntArray",
      "outputs": [
        {
          "name": "",
          "type": "int256[]"
        }
      ],
      "payable": false,
      "stateMutability": "view",
      "type": "function"
    },
    {
      "constant": true,
      "inputs": [
        {
          "name": "key",
          "type": "bytes32"
        },
        {
          "name": "index",
          "type": "uint256"
        }
      ],
      "name": "getIntArrayIndex",
      "outputs": [
        {
          "name": "",
          "type": "int256"
        }
      ],
      "payable": false,
      "stateMutability": "view",
      "type": "function"
    },
    {
      "constant": true,
      "inputs": [
        {
          "name": "key",
          "type": "bytes32"
        }
      ],
      "name": "getIntArrayLength",
      "outputs": [
        {
          "name": "",
          "type": "uint256"
        }
      ],
      "payable": false,
      "stateMutability": "view",
      "type": "function"
    },
    {
      "constant": false,
      "inputs": [
        {
          "name": "key",
          "type": "bytes32"
        },
        {
          "name": "value",
          "type": "int256"
        }
      ],
      "name": "pushIntArray",
      "outputs": [],
      "payable": false,
      "stateMutability": "nonpayable",
      "type": "function"
    },
    {
      "constant": false,
      "inputs": [
        {
          "name": "key",
          "type": "bytes32"
        },
        {
          "name": "index",
          "type": "uint256"
        },
        {
          "name": "value",
          "type": "int256"
        }
      ],
      "name": "setIntArrayIndex",
      "outputs": [],
      "payable": false,
      "stateMutability": "nonpayable",
      "type": "function"
    },
    {
      "constant": false,
      "inputs": [
        {
          "name": "key",
          "type": "bytes32"
        },
        {
          "name": "value",
          "type": "int256[]"
        }
      ],
      "name": "setIntArray",
      "outputs": [],
      "payable": false,
      "stateMutability": "nonpayable",
      "type": "function"
    },
    {
      "constant": true,
      "inputs": [
        {
          "name": "key",
          "type": "bytes32"
        }
      ],
      "name": "getAddressArray",
      "outputs": [
        {
          "name": "",
          "type": "address[]"
        }
      ],
      "payable": false,
      "stateMutability": "view",
      "type": "function"
    },
    {
      "constant": true,
      "inputs": [
        {
          "name": "key",
          "type": "bytes32"
        },
        {
          "name": "index",
          "type": "uint256"
        }
      ],
      "name": "getAddressArrayIndex",
      "outputs": [
        {
          "name": "",
          "type": "address"
        }
      ],
      "payable": false,
      "stateMutability": "view",
      "type": "function"
    },
    {
      "constant": true,
      "inputs": [
        {
          "name": "key",
          "type": "bytes32"
        }
      ],
      "name": "getAddressArrayLength",
      "outputs": [
        {
          "name": "",
          "type": "uint256"
        }
      ],
      "payable": false,
      "stateMutability": "view",
      "type": "function"
    },
    {
      "constant": false,
      "inputs": [
        {
          "name": "key",
          "type": "bytes32"
        },
        {
          "name": "value",
          "type": "address"
        }
      ],
      "name": "pushAddressArray",
      "outputs": [],
      "payable": false,
      "stateMutability": "nonpayable",
      "type": "function"
    },
    {
      "constant": false,
      "inputs": [
        {
          "name": "key",
          "type": "bytes32"
        },
        {
          "name": "index",
          "type": "uint256"
        },
        {
          "name": "value",
          "type": "address"
        }
      ],
      "name": "setAddressArrayIndex",
      "outputs": [],
      "payable": false,
      "stateMutability": "nonpayable",
      "type": "function"
    },
    {
      "constant": false,
      "inputs": [
        {
          "name": "key",
          "type": "bytes32"
        },
        {
          "name": "value",
          "type": "address[]"
        }
      ],
      "name": "setAddressArray",
      "outputs": [],
      "payable": false,
      "stateMutability": "nonpayable",
      "type": "function"
    }
  ],
  "bytecode": "0x608060405234801561001057600080fd5b50336000806101000a81548173ffffffffffffffffffffffffffffffffffffffff021916908373ffffffffffffffffffffffffffffffffffffffff16021790555061268b806100606000396000f3006080604052600436106101a1576000357c0100000000000000000000000000000000000000000000000000000000900463ffffffff1680630dd63ba3146101a65780631b929940146101eb57806321f8a721146102265780632d2899b6146102975780632e28d0841461031d5780632ecb0d64146103665780632fc94ba6146103ab57806343cb0af7146103f05780634e91db081461043557806354c552db1461047457806356e5cf2e146104af5780635948f733146104f85780635eca2aeb1461057e5780636e899550146105d5578063715018a61461061e57806387ddf6cd146106355780638d152d78146106905780638da5cb5b146106cf5780638db0e83b146107265780638f32d59b146107ac578063986e791a146107db578063a21a65ae14610885578063a2987245146108ca578063a42b6bf114610919578063a4f63ec814610968578063a6ed563e146109b1578063a9fcf76b146109fe578063c031a18014610a47578063ca446dd914610af1578063dd151d1e14610b42578063e16e934014610b93578063ec672cf614610c0e578063f2fde38b14610c57575b600080fd5b3480156101b257600080fd5b506101e960048036038101908080356000191690602001909291908035906020019092919080359060200190929190505050610c9a565b005b3480156101f757600080fd5b50610224600480360381019080803560001916906020019092919080359060200190929190505050610dbd565b005b34801561023257600080fd5b506102556004803603810190808035600019169060200190929190505050610eed565b604051808273ffffffffffffffffffffffffffffffffffffffff1673ffffffffffffffffffffffffffffffffffffffff16815260200191505060405180910390f35b3480156102a357600080fd5b506102c66004803603810190808035600019169060200190929190505050610f32565b6040518080602001828103825283818151815260200191508051906020019060200280838360005b838110156103095780820151818401526020810190506102ee565b505050509050019250505060405180910390f35b34801561032957600080fd5b506103646004803603810190808035600019169060200190929190803590602001908201803590602001919091929391929390505050610fa5565b005b34801561037257600080fd5b5061039560048036038101908080356000191690602001909291905050506110bc565b6040518082815260200191505060405180910390f35b3480156103b757600080fd5b506103da60048036038101908080356000191690602001909291905050506110e5565b6040518082815260200191505060405180910390f35b3480156103fc57600080fd5b5061041f600480360381019080803560001916906020019092919050505061110d565b6040518082815260200191505060405180910390f35b34801561044157600080fd5b5061047260048036038101908080356000191690602001909291908035600019169060200190929190505050611135565b005b34801561048057600080fd5b506104ad600480360381019080803560001916906020019092919080359060200190929190505050611244565b005b3480156104bb57600080fd5b506104f66004803603810190808035600019169060200190929190803590602001908201803590602001919091929391929390505050611356565b005b34801561050457600080fd5b50610527600480360381019080803560001916906020019092919050505061146d565b6040518080602001828103825283818151815260200191508051906020019060200280838360005b8381101561056a57808201518184015260208101905061054f565b505050509050019250505060405180910390f35b34801561058a57600080fd5b506105b7600480360381019080803560001916906020019092919080359060200190929190505050611516565b60405180826000191660001916815260200191505060405180910390f35b3480156105e157600080fd5b5061061c6004803603810190808035600019169060200190929190803590602001908201803590602001919091929391929390505050611553565b005b34801561062a57600080fd5b5061063361166a565b005b34801561064157600080fd5b5061068e600480360381019080803560001916906020019092919080359060200190929190803573ffffffffffffffffffffffffffffffffffffffff169060200190929190505050611724565b005b34801561069c57600080fd5b506106cd60048036038101908080356000191690602001909291908035600019169060200190929190505050611881565b005b3480156106db57600080fd5b506106e46118d0565b604051808273ffffffffffffffffffffffffffffffffffffffff1673ffffffffffffffffffffffffffffffffffffffff16815260200191505060405180910390f35b34801561073257600080fd5b5061075560048036038101908080356000191690602001909291905050506118f9565b6040518080602001828103825283818151815260200191508051906020019060200280838360005b8381101561079857808201518184015260208101905061077d565b505050509050019250505060405180910390f35b3480156107b857600080fd5b506107c1611970565b604051808215151515815260200191505060405180910390f35b3480156107e757600080fd5b5061080a60048036038101908080356000191690602001909291905050506119c7565b6040518080602001828103825283818151815260200191508051906020019080838360005b8381101561084a57808201518184015260208101905061082f565b50505050905090810190601f1680156108775780820380516001836020036101000a031916815260200191505b509250505060405180910390f35b34801561089157600080fd5b506108b46004803603810190808035600019169060200190929190505050611a84565b6040518082815260200191505060405180910390f35b3480156108d657600080fd5b50610903600480360381019080803560001916906020019092919080359060200190929190505050611aac565b6040518082815260200191505060405180910390f35b34801561092557600080fd5b50610966600480360381019080803573ffffffffffffffffffffffffffffffffffffffff169060200190929190803515159060200190929190505050611ae9565b005b34801561097457600080fd5b506109af6004803603810190808035600019169060200190929190803590602001909291908035600019169060200190929190505050611c74565b005b3480156109bd57600080fd5b506109e06004803603810190808035600019169060200190929190505050611d9b565b60405180826000191660001916815260200191505060405180910390f35b348015610a0a57600080fd5b50610a456004803603810190808035600019169060200190929190803590602001908201803590602001919091929391929390505050611dc0565b005b348015610a5357600080fd5b50610a766004803603810190808035600019169060200190929190505050611ed7565b6040518080602001828103825283818151815260200191508051906020019080838360005b83811015610ab6578082015181840152602081019050610a9b565b50505050905090810190601f168015610ae35780820380516001836020036101000a031916815260200191505b509250505060405180910390f35b348015610afd57600080fd5b50610b406004803603810190808035600019169060200190929190803573ffffffffffffffffffffffffffffffffffffffff169060200190929190505050611f94565b005b348015610b4e57600080fd5b50610b916004803603810190808035600019169060200190929190803573ffffffffffffffffffffffffffffffffffffffff1690602001909291905050506120d9565b005b348015610b9f57600080fd5b50610bcc60048036038101908080356000191690602001909291908035906020019092919050505061215c565b604051808273ffffffffffffffffffffffffffffffffffffffff1673ffffffffffffffffffffffffffffffffffffffff16815260200191505060405180910390f35b348015610c1a57600080fd5b50610c5560048036038101908080356000191690602001909291908035906020019082018035906020019190919293919293905050506121b9565b005b348015610c6357600080fd5b50610c98600480360381019080803573ffffffffffffffffffffffffffffffffffffffff1690602001909291905050506122d0565b005b600660003373ffffffffffffffffffffffffffffffffffffffff1673ffffffffffffffffffffffffffffffffffffffff16815260200190815260200160002060009054906101000a900460ff161515610d81576040517f08c379a00000000000000000000000000000000000000000000000000000000081526004018080602001828103825260248152602001807f4572726f723a20416363657373206e6f7420616c6c6f77656420746f2073746f81526020017f726167650000000000000000000000000000000000000000000000000000000081525060400191505060405180910390fd5b8060046000856000191660001916815260200190815260200160002083815481101515610daa57fe5b9060005260206000200181905550505050565b600660003373ffffffffffffffffffffffffffffffffffffffff1673ffffffffffffffffffffffffffffffffffffffff16815260200190815260200160002060009054906101000a900460ff161515610ea4576040517f08c379a00000000000000000000000000000000000000000000000000000000081526004018080602001828103825260248152602001807f4572726f723a20416363657373206e6f7420616c6c6f77656420746f2073746f81526020017f726167650000000000000000000000000000000000000000000000000000000081525060400191505060405180910390fd5b6004600083600019166000191681526020019081526020016000208190806001815401808255809150509060018203906000526020600020016000909192909190915055505050565b600060076000836000191660001916815260200190815260200160002060009054906101000a900473ffffffffffffffffffffffffffffffffffffffff169050919050565b6060600460008360001916600019168152602001908152602001600020805480602002602001604051908101604052809291908181526020018280548015610f9957602002820191906000526020600020905b815481526020019060010190808311610f85575b50505050509050919050565b600660003373ffffffffffffffffffffffffffffffffffffffff1673ffffffffffffffffffffffffffffffffffffffff16815260200190815260200160002060009054906101000a900460ff16151561108c576040517f08c379a00000000000000000000000000000000000000000000000000000000081526004018080602001828103825260248152602001807f4572726f723a20416363657373206e6f7420616c6c6f77656420746f2073746f81526020017f726167650000000000000000000000000000000000000000000000000000000081525060400191505060405180910390fd5b818160026000866000191660001916815260200190815260200160002091906110b69291906123e9565b50505050565b600060016000836000191660001916815260200190815260200160002054600190049050919050565b6000600560008360001916600019168152602001908152602001600020805490509050919050565b6000600360008360001916600019168152602001908152602001600020805490509050919050565b600660003373ffffffffffffffffffffffffffffffffffffffff1673ffffffffffffffffffffffffffffffffffffffff16815260200190815260200160002060009054906101000a900460ff16151561121c576040517f08c379a00000000000000000000000000000000000000000000000000000000081526004018080602001828103825260248152602001807f4572726f723a20416363657373206e6f7420616c6c6f77656420746f2073746f81526020017f726167650000000000000000000000000000000000000000000000000000000081525060400191505060405180910390fd5b8060016000846000191660001916815260200190815260200160002081600019169055505050565b600660003373ffffffffffffffffffffffffffffffffffffffff1673ffffffffffffffffffffffffffffffffffffffff16815260200190815260200160002060009054906101000a900460ff16151561132b576040517f08c379a00000000000000000000000000000000000000000000000000000000081526004018080602001828103825260248152602001807f4572726f723a20416363657373206e6f7420616c6c6f77656420746f2073746f81526020017f726167650000000000000000000000000000000000000000000000000000000081525060400191505060405180910390fd5b8060010260016000846000191660001916815260200190815260200160002081600019169055505050565b600660003373ffffffffffffffffffffffffffffffffffffffff1673ffffffffffffffffffffffffffffffffffffffff16815260200190815260200160002060009054906101000a900460ff16151561143d576040517f08c379a00000000000000000000000000000000000000000000000000000000081526004018080602001828103825260248152602001807f4572726f723a20416363657373206e6f7420616c6c6f77656420746f2073746f81526020017f726167650000000000000000000000000000000000000000000000000000000081525060400191505060405180910390fd5b81816003600086600019166000191681526020019081526020016000209190611467929190612469565b50505050565b606060056000836000191660001916815260200190815260200160002080548060200260200160405190810160405280929190818152602001828054801561150a57602002820191906000526020600020905b8160009054906101000a900473ffffffffffffffffffffffffffffffffffffffff1673ffffffffffffffffffffffffffffffffffffffff16815260200190600101908083116114c0575b50505050509050919050565b60006003600084600019166000191681526020019081526020016000208281548110151561154057fe5b9060005260206000200154905092915050565b600660003373ffffffffffffffffffffffffffffffffffffffff1673ffffffffffffffffffffffffffffffffffffffff16815260200190815260200160002060009054906101000a900460ff16151561163a576040517f08c379a00000000000000000000000000000000000000000000000000000000081526004018080602001828103825260248152602001807f4572726f723a20416363657373206e6f7420616c6c6f77656420746f2073746f81526020017f726167650000000000000000000000000000000000000000000000000000000081525060400191505060405180910390fd5b818160026000866000191660001916815260200190815260200160002091906116649291906123e9565b50505050565b611672611970565b151561167d57600080fd5b6000809054906101000a900473ffffffffffffffffffffffffffffffffffffffff1673ffffffffffffffffffffffffffffffffffffffff167ff8df31144d9c2f0f6b59d69b8b98abd5459d07f2742c4df920b25aae33c6482060405160405180910390a260008060006101000a81548173ffffffffffffffffffffffffffffffffffffffff021916908373ffffffffffffffffffffffffffffffffffffffff160217905550565b600660003373ffffffffffffffffffffffffffffffffffffffff1673ffffffffffffffffffffffffffffffffffffffff16815260200190815260200160002060009054906101000a900460ff16151561180b576040517f08c379a00000000000000000000000000000000000000000000000000000000081526004018080602001828103825260248152602001807f4572726f723a20416363657373206e6f7420616c6c6f77656420746f2073746f81526020017f726167650000000000000000000000000000000000000000000000000000000081525060400191505060405180910390fd5b806005600085600019166000191681526020019081526020016000208381548110151561183457fe5b9060005260206000200160006101000a81548173ffffffffffffffffffffffffffffffffffffffff021916908373ffffffffffffffffffffffffffffffffffffffff160217905550505050565b6003600083600019166000191681526020019081526020016000208190806001815401808255809150509060018203906000526020600020016000909192909190915090600019169055505050565b60008060009054906101000a900473ffffffffffffffffffffffffffffffffffffffff16905090565b606060036000836000191660001916815260200190815260200160002080548060200260200160405190810160405280929190818152602001828054801561196457602002820191906000526020600020905b8154600019168152602001906001019080831161194c575b50505050509050919050565b60008060009054906101000a900473ffffffffffffffffffffffffffffffffffffffff1673ffffffffffffffffffffffffffffffffffffffff163373ffffffffffffffffffffffffffffffffffffffff1614905090565b60606002600083600019166000191681526020019081526020016000208054600181600116156101000203166002900480601f016020809104026020016040519081016040528092919081815260200182805460018160011615610100020316600290048015611a785780601f10611a4d57610100808354040283529160200191611a78565b820191906000526020600020905b815481529060010190602001808311611a5b57829003601f168201915b50505050509050919050565b6000600460008360001916600019168152602001908152602001600020805490509050919050565b600060046000846000191660001916815260200190815260200160002082815481101515611ad657fe5b9060005260206000200154905092915050565b611af1611970565b1515611afc57600080fd5b600073ffffffffffffffffffffffffffffffffffffffff168273ffffffffffffffffffffffffffffffffffffffff1614151515611bc7576040517f08c379a000000000000000000000000000000000000000000000000000000000815260040180806020018281038252602f8152602001807f4572726f723a2041646472657373207a65726f20697320696e76616c6964207381526020017f746f7261676520636f6e7472616374000000000000000000000000000000000081525060400191505060405180910390fd5b80600660008473ffffffffffffffffffffffffffffffffffffffff1673ffffffffffffffffffffffffffffffffffffffff16815260200190815260200160002060006101000a81548160ff0219169083151502179055508173ffffffffffffffffffffffffffffffffffffffff167fc139d49f05d574c44ade2e84d6e5ddbab8d65a476d7244af01a64b247788c29782604051808215151515815260200191505060405180910390a25050565b600660003373ffffffffffffffffffffffffffffffffffffffff1673ffffffffffffffffffffffffffffffffffffffff16815260200190815260200160002060009054906101000a900460ff161515611d5b576040517f08c379a00000000000000000000000000000000000000000000000000000000081526004018080602001828103825260248152602001807f4572726f723a20416363657373206e6f7420616c6c6f77656420746f2073746f81526020017f726167650000000000000000000000000000000000000000000000000000000081525060400191505060405180910390fd5b8060036000856000191660001916815260200190815260200160002083815481101515611d8457fe5b906000526020600020018160001916905550505050565b6000600160008360001916600019168152602001908152602001600020549050919050565b600660003373ffffffffffffffffffffffffffffffffffffffff1673ffffffffffffffffffffffffffffffffffffffff16815260200190815260200160002060009054906101000a900460ff161515611ea7576040517f08c379a00000000000000000000000000000000000000000000000000000000081526004018080602001828103825260248152602001807f4572726f723a20416363657373206e6f7420616c6c6f77656420746f2073746f81526020017f726167650000000000000000000000000000000000000000000000000000000081525060400191505060405180910390fd5b81816004600086600019166000191681526020019081526020016000209190611ed19291906124c0565b50505050565b60606002600083600019166000191681526020019081526020016000208054600181600116156101000203166002900480601f016020809104026020016040519081016040528092919081815260200182805460018160011615610100020316600290048015611f885780601f10611f5d57610100808354040283529160200191611f88565b820191906000526020600020905b815481529060010190602001808311611f6b57829003601f168201915b50505050509050919050565b600660003373ffffffffffffffffffffffffffffffffffffffff1673ffffffffffffffffffffffffffffffffffffffff16815260200190815260200160002060009054906101000a900460ff16151561207b576040517f08c379a00000000000000000000000000000000000000000000000000000000081526004018080602001828103825260248152602001807f4572726f723a20416363657373206e6f7420616c6c6f77656420746f2073746f81526020017f726167650000000000000000000000000000000000000000000000000000000081525060400191505060405180910390fd5b8060076000846000191660001916815260200190815260200160002060006101000a81548173ffffffffffffffffffffffffffffffffffffffff021916908373ffffffffffffffffffffffffffffffffffffffff1602179055505050565b6005600083600019166000191681526020019081526020016000208190806001815401808255809150509060018203906000526020600020016000909192909190916101000a81548173ffffffffffffffffffffffffffffffffffffffff021916908373ffffffffffffffffffffffffffffffffffffffff160217905550505050565b60006005600084600019166000191681526020019081526020016000208281548110151561218657fe5b9060005260206000200160009054906101000a900473ffffffffffffffffffffffffffffffffffffffff16905092915050565b600660003373ffffffffffffffffffffffffffffffffffffffff1673ffffffffffffffffffffffffffffffffffffffff16815260200190815260200160002060009054906101000a900460ff1615156122a0576040517f08c379a00000000000000000000000000000000000000000000000000000000081526004018080602001828103825260248152602001807f4572726f723a20416363657373206e6f7420616c6c6f77656420746f2073746f81526020017f726167650000000000000000000000000000000000000000000000000000000081525060400191505060405180910390fd5b818160056000866000191660001916815260200190815260200160002091906122ca92919061250d565b50505050565b6122d8611970565b15156122e357600080fd5b6122ec816122ef565b50565b600073ffffffffffffffffffffffffffffffffffffffff168173ffffffffffffffffffffffffffffffffffffffff161415151561232b57600080fd5b8073ffffffffffffffffffffffffffffffffffffffff166000809054906101000a900473ffffffffffffffffffffffffffffffffffffffff1673ffffffffffffffffffffffffffffffffffffffff167f8be0079c531659141344cd1fd0a4f28419497f9722a3daafe3b4186f6b6457e060405160405180910390a3806000806101000a81548173ffffffffffffffffffffffffffffffffffffffff021916908373ffffffffffffffffffffffffffffffffffffffff16021790555050565b828054600181600116156101000203166002900490600052602060002090601f016020900481019282601f1061242a57803560ff1916838001178555612458565b82800160010185558215612458579182015b8281111561245757823582559160200191906001019061243c565b5b50905061246591906125ad565b5090565b8280548282559060005260206000209081019282156124af579160200282015b828111156124ae57823560001916829060001916905591602001919060010190612489565b5b5090506124bc91906125d2565b5090565b8280548282559060005260206000209081019282156124fc579160200282015b828111156124fb5782358255916020019190600101906124e0565b5b50905061250991906125f7565b5090565b82805482825590600052602060002090810192821561259c579160200282015b8281111561259b57823573ffffffffffffffffffffffffffffffffffffffff168260006101000a81548173ffffffffffffffffffffffffffffffffffffffff021916908373ffffffffffffffffffffffffffffffffffffffff1602179055509160200191906001019061252d565b5b5090506125a9919061261c565b5090565b6125cf91905b808211156125cb5760008160009055506001016125b3565b5090565b90565b6125f491905b808211156125f05760008160009055506001016125d8565b5090565b90565b61261991905b808211156126155760008160009055506001016125fd565b5090565b90565b61265c91905b8082111561265857600081816101000a81549073ffffffffffffffffffffffffffffffffffffffff021916905550600101612622565b5090565b905600a165627a7a723058207ea413a958fbf6ebf81b8d7502c2d7776edf0edb3798b7e02c35fbb6275db9500029",
  "source": "pragma solidity ^0.4.24;\n\nimport \"./Idatabase.sol\";\nimport \"../Ownable.sol\";\n\ncontract Db is Ownable, Idatabase {\n\tevent StorageModified(address indexed contractAddress, bool allowed);\n\n\tmapping (bytes32 => bytes32) data_bytes32;\n\tmapping (bytes32 => bytes) data_bytes;\n\tmapping (bytes32 => bytes32[]) data_bytesArray;\n\tmapping (bytes32 => int256[]) data_intArray;\n\tmapping (bytes32 => address[]) data_addressArray;\n\tmapping (address => bool) allowed;\n    mapping (bytes32 => address) data_address;\n\n\n\tconstructor() public {\n\n\t}\n\n\tmodifier storageOnly {\n\t\trequire(allowed[msg.sender], \"Error: Access not allowed to storage\");\n\t\t_;\n\t}\n\n\tfunction setStorageContract(address _storageContract, bool _allowed) public onlyOwner {\n\t\trequire(_storageContract != address(0), \"Error: Address zero is invalid storage contract\");\n\t\tallowed[_storageContract] = _allowed;\n\t\temit StorageModified(_storageContract, _allowed);\n\t}\n\n\t/*** Bytes32 ***/\n\tfunction getBytes32(bytes32 key) external view returns(bytes32) {\n\t\treturn data_bytes32[key];\n\t}\n\n\tfunction setBytes32(bytes32 key, bytes32 value) external storageOnly  {\n\t\tdata_bytes32[key] = value;\n\t}\n\n\t/*** Number **/\n\tfunction getNumber(bytes32 key) external view returns(uint256) {\n\t\treturn uint256(data_bytes32[key]);\n\t}\n\n\tfunction setNumber(bytes32 key, uint256 value) external storageOnly {\n\t\tdata_bytes32[key] = bytes32(value);\n\t}\n\n\t/*** Bytes ***/\n\tfunction getBytes(bytes32 key) external view returns(bytes) {\n\t\treturn data_bytes[key];\n\t}\n\n\tfunction setBytes(bytes32 key, bytes value) external storageOnly {\n\t\tdata_bytes[key] = value;\n\t}\n\n\t/*** String ***/\n\tfunction getString(bytes32 key) external view returns(string) {\n\t\treturn string(data_bytes[key]);\n\t}\n\n\tfunction setString(bytes32 key, string value) external storageOnly {\n\t\tdata_bytes[key] = bytes(value);\n\t}\n    /*** Address ***/\n    function setAddress(bytes32 key, address add) external storageOnly{\n        data_address[key] = add;\n    }\n\n    function getAddress(bytes32 key) external view returns (address){\n        return data_address[key];\n    }\n\n\t/*** Bytes Array ***/\n\tfunction getBytesArray(bytes32 key) external view returns (bytes32[]) {\n\t\treturn data_bytesArray[key];\n\t}\n\n\tfunction getBytesArrayIndex(bytes32 key, uint256 index) external view returns (bytes32) {\n\t\treturn data_bytesArray[key][index];\n\t}\n\n\tfunction getBytesArrayLength(bytes32 key) external view returns (uint256) {\n\t\treturn data_bytesArray[key].length;\n\t}\n\n\tfunction pushBytesArray(bytes32 key, bytes32 value) external {\n\t\tdata_bytesArray[key].push(value);\n\t}\n\n\tfunction setBytesArrayIndex(bytes32 key, uint256 index, bytes32 value) external storageOnly {\n\t\tdata_bytesArray[key][index] = value;\n\t}\n\n\tfunction setBytesArray(bytes32 key, bytes32[] value) external storageOnly {\n\t\tdata_bytesArray[key] = value;\n\t}\n\n\t/*** Int Array ***/\n\tfunction getIntArray(bytes32 key) external view returns (int256[]) {\n\t\treturn data_intArray[key];\n\t}\n\n\tfunction getIntArrayIndex(bytes32 key, uint256 index) external view returns (int256) {\n\t\treturn data_intArray[key][index];\n\t}\n\n\tfunction getIntArrayLength(bytes32 key) external view returns (uint256) {\n\t\treturn data_intArray[key].length;\n\t}\n\n\tfunction pushIntArray(bytes32 key, int256 value) external storageOnly{\n\t\tdata_intArray[key].push(value);\n\t}\n\n\tfunction setIntArrayIndex(bytes32 key, uint256 index, int256 value) external storageOnly {\n\t\tdata_intArray[key][index] = value;\n\t}\n\n\tfunction setIntArray(bytes32 key, int256[] value) external storageOnly {\n\t\tdata_intArray[key] = value;\n\t}\n\n\t/*** Address Array ***/\n\tfunction getAddressArray(bytes32 key) external view returns (address[]) {\n\t\treturn data_addressArray[key];\n\t}\n\n\tfunction getAddressArrayIndex(bytes32 key, uint256 index) external view returns (address) {\n\t\treturn data_addressArray[key][index];\n\t}\n\n\tfunction getAddressArrayLength(bytes32 key) external view returns (uint256) {\n\t\treturn data_addressArray[key].length;\n\t}\n\n\tfunction pushAddressArray(bytes32 key, address value) external {\n\t\tdata_addressArray[key].push(value);\n\t}\n\n\tfunction setAddressArrayIndex(bytes32 key, uint256 index, address value) external storageOnly {\n\t\tdata_addressArray[key][index] = value;\n\t}\n\n\tfunction setAddressArray(bytes32 key, address[] value) external storageOnly {\n\t\tdata_addressArray[key] = value;\n\t}\n}",
  "sourcePath": "/home/kim/ZAP/betContracts/contracts/database/Db.sol",
  "compiler": {
    "name": "solc",
    "version": "0.4.24+commit.e67f0147.Emscripten.clang"
  },
  "schemaVersion": "2.0.1",
  "updatedAt": "2018-10-19T21:52:49.442Z"
}