{
  "contractName": "PredictFactory",
  "abi": [
    {
      "constant": true,
      "inputs": [],
      "name": "count",
      "outputs": [
        {
          "name": "",
          "type": "uint256"
        }
      ],
      "payable": false,
      "stateMutability": "view",
      "type": "function"
    },
    {
      "constant": true,
      "inputs": [],
      "name": "db",
      "outputs": [
        {
          "name": "",
          "type": "address"
        }
      ],
      "payable": false,
      "stateMutability": "view",
      "type": "function"
    },
    {
      "constant": false,
      "inputs": [],
      "name": "renounceOwnership",
      "outputs": [],
      "payable": false,
      "stateMutability": "nonpayable",
      "type": "function"
    },
    {
      "constant": true,
      "inputs": [],
      "name": "owner",
      "outputs": [
        {
          "name": "",
          "type": "address"
        }
      ],
      "payable": false,
      "stateMutability": "view",
      "type": "function"
    },
    {
      "constant": true,
      "inputs": [],
      "name": "isOwner",
      "outputs": [
        {
          "name": "",
          "type": "bool"
        }
      ],
      "payable": false,
      "stateMutability": "view",
      "type": "function"
    },
    {
      "constant": false,
      "inputs": [
        {
          "name": "newOwner",
          "type": "address"
        }
      ],
      "name": "transferOwnership",
      "outputs": [],
      "payable": false,
      "stateMutability": "nonpayable",
      "type": "function"
    },
    {
      "inputs": [
        {
          "name": "_dbAddress",
          "type": "address"
        },
        {
          "name": "_zapCoor",
          "type": "address"
        }
      ],
      "payable": false,
      "stateMutability": "nonpayable",
      "type": "constructor"
    },
    {
      "anonymous": false,
      "inputs": [
        {
          "indexed": true,
          "name": "player",
          "type": "address"
        },
        {
          "indexed": true,
          "name": "side",
          "type": "int256"
        },
        {
          "indexed": true,
          "name": "amount",
          "type": "uint256"
        }
      ],
      "name": "JoinPredict",
      "type": "event"
    },
    {
      "anonymous": false,
      "inputs": [
        {
          "indexed": true,
          "name": "predict",
          "type": "address"
        },
        {
          "indexed": true,
          "name": "queryId",
          "type": "uint256"
        }
      ],
      "name": "SettlingPrediction",
      "type": "event"
    },
    {
      "anonymous": false,
      "inputs": [
        {
          "indexed": true,
          "name": "id",
          "type": "bytes32"
        },
        {
          "indexed": true,
          "name": "price",
          "type": "uint256"
        },
        {
          "indexed": true,
          "name": "ti",
          "type": "uint256"
        },
        {
          "indexed": false,
          "name": "coin",
          "type": "string"
        },
        {
          "indexed": false,
          "name": "newPredict",
          "type": "address"
        }
      ],
      "name": "PredictCreated",
      "type": "event"
    },
    {
      "anonymous": false,
      "inputs": [
        {
          "indexed": false,
          "name": "winners",
          "type": "address[]"
        },
        {
          "indexed": false,
          "name": "predict",
          "type": "address"
        },
        {
          "indexed": false,
          "name": "resultPrice",
          "type": "uint256"
        },
        {
          "indexed": false,
          "name": "winAmount",
          "type": "uint256"
        },
        {
          "indexed": false,
          "name": "lostAmount",
          "type": "uint256"
        }
      ],
      "name": "Settled",
      "type": "event"
    },
    {
      "anonymous": false,
      "inputs": [
        {
          "indexed": false,
          "name": "id",
          "type": "uint256"
        },
        {
          "indexed": false,
          "name": "response",
          "type": "uint256"
        },
        {
          "indexed": false,
          "name": "sender",
          "type": "address"
        }
      ],
      "name": "Callback",
      "type": "event"
    },
    {
      "anonymous": false,
      "inputs": [
        {
          "indexed": true,
          "name": "previousOwner",
          "type": "address"
        }
      ],
      "name": "OwnershipRenounced",
      "type": "event"
    },
    {
      "anonymous": false,
      "inputs": [
        {
          "indexed": true,
          "name": "previousOwner",
          "type": "address"
        },
        {
          "indexed": true,
          "name": "newOwner",
          "type": "address"
        }
      ],
      "name": "OwnershipTransferred",
      "type": "event"
    },
    {
      "constant": false,
      "inputs": [
        {
          "name": "_coin",
          "type": "string"
        },
        {
          "name": "_price",
          "type": "uint256"
        },
        {
          "name": "_time",
          "type": "uint256"
        },
        {
          "name": "_side",
          "type": "int256"
        },
        {
          "name": "_oracle",
          "type": "address"
        },
        {
          "name": "_endpoint",
          "type": "bytes32"
        }
      ],
      "name": "createPredict",
      "outputs": [
        {
          "name": "",
          "type": "address"
        }
      ],
      "payable": true,
      "stateMutability": "payable",
      "type": "function"
    },
    {
      "constant": false,
      "inputs": [
        {
          "name": "_predict",
          "type": "address"
        },
        {
          "name": "_side",
          "type": "int256"
        }
      ],
      "name": "joinPrediction",
      "outputs": [],
      "payable": true,
      "stateMutability": "payable",
      "type": "function"
    },
    {
      "constant": false,
      "inputs": [
        {
          "name": "_predict",
          "type": "address"
        }
      ],
      "name": "settlePrediction",
      "outputs": [
        {
          "name": "",
          "type": "uint256"
        }
      ],
      "payable": false,
      "stateMutability": "nonpayable",
      "type": "function"
    },
    {
      "constant": true,
      "inputs": [
        {
          "name": "_predict",
          "type": "address"
        }
      ],
      "name": "getPredictInfo",
      "outputs": [
        {
          "name": "",
          "type": "string"
        },
        {
          "name": "",
          "type": "uint256"
        },
        {
          "name": "",
          "type": "uint256"
        },
        {
          "name": "",
          "type": "uint256"
        },
        {
          "name": "",
          "type": "address"
        },
        {
          "name": "",
          "type": "bool"
        }
      ],
      "payable": false,
      "stateMutability": "view",
      "type": "function"
    },
    {
      "constant": true,
      "inputs": [],
      "name": "getZapBridge",
      "outputs": [
        {
          "name": "",
          "type": "address"
        },
        {
          "name": "",
          "type": "address"
        }
      ],
      "payable": false,
      "stateMutability": "view",
      "type": "function"
    },
    {
      "constant": true,
      "inputs": [
        {
          "name": "_predict",
          "type": "address"
        }
      ],
      "name": "getOracle",
      "outputs": [
        {
          "name": "",
          "type": "address"
        },
        {
          "name": "",
          "type": "bytes32"
        }
      ],
      "payable": false,
      "stateMutability": "view",
      "type": "function"
    },
    {
      "constant": true,
      "inputs": [
        {
          "name": "id",
          "type": "bytes32"
        }
      ],
      "name": "getPredictAddress",
      "outputs": [
        {
          "name": "",
          "type": "address"
        }
      ],
      "payable": false,
      "stateMutability": "view",
      "type": "function"
    },
    {
      "constant": true,
      "inputs": [
        {
          "name": "_predict",
          "type": "address"
        }
      ],
      "name": "getPredictId",
      "outputs": [
        {
          "name": "",
          "type": "bytes32"
        }
      ],
      "payable": false,
      "stateMutability": "view",
      "type": "function"
    },
    {
      "constant": true,
      "inputs": [],
      "name": "getAllBets",
      "outputs": [
        {
          "name": "",
          "type": "bytes32[]"
        }
      ],
      "payable": false,
      "stateMutability": "view",
      "type": "function"
    },
    {
      "constant": true,
      "inputs": [
        {
          "name": "_predict",
          "type": "address"
        }
      ],
      "name": "getParticipants",
      "outputs": [
        {
          "name": "",
          "type": "address[]"
        },
        {
          "name": "",
          "type": "address[]"
        },
        {
          "name": "",
          "type": "address[]"
        }
      ],
      "payable": false,
      "stateMutability": "view",
      "type": "function"
    },
    {
      "constant": true,
      "inputs": [
        {
          "name": "_predict",
          "type": "address"
        },
        {
          "name": "_side",
          "type": "int256"
        }
      ],
      "name": "getSide",
      "outputs": [
        {
          "name": "",
          "type": "address[]"
        }
      ],
      "payable": false,
      "stateMutability": "view",
      "type": "function"
    },
    {
      "constant": false,
      "inputs": [
        {
          "name": "winner",
          "type": "address[]"
        },
        {
          "name": "predict",
          "type": "address"
        },
        {
          "name": "_price",
          "type": "uint256"
        },
        {
          "name": "_winAmount",
          "type": "uint256"
        },
        {
          "name": "_lostAmount",
          "type": "uint256"
        }
      ],
      "name": "emitSettled",
      "outputs": [],
      "payable": false,
      "stateMutability": "nonpayable",
      "type": "function"
    },
    {
      "constant": false,
      "inputs": [
        {
          "name": "id",
          "type": "uint256"
        },
        {
          "name": "response",
          "type": "uint256"
        },
        {
          "name": "sender",
          "type": "address"
        }
      ],
      "name": "emitCallback",
      "outputs": [],
      "payable": false,
      "stateMutability": "nonpayable",
      "type": "function"
    }
  ],
  "bytecode": "0x608060405260016000553480156200001657600080fd5b50604051604080620048fe833981018060405281019080805190602001909291908051906020019092919050505033600160006101000a81548173ffffffffffffffffffffffffffffffffffffffff021916908373ffffffffffffffffffffffffffffffffffffffff160217905550600073ffffffffffffffffffffffffffffffffffffffff168273ffffffffffffffffffffffffffffffffffffffff16141515156200012b576040517f08c379a00000000000000000000000000000000000000000000000000000000081526004018080602001828103825260168152602001807f646220616464726573732069732072657175697265640000000000000000000081525060200191505060405180910390fd5b600073ffffffffffffffffffffffffffffffffffffffff168173ffffffffffffffffffffffffffffffffffffffff1614151515620001f7576040517f08c379a00000000000000000000000000000000000000000000000000000000081526004018080602001828103825260238152602001807f5a617020436f6f7264696e61746f72206164647265737320697320726571756981526020017f726564000000000000000000000000000000000000000000000000000000000081525060400191505060405180910390fd5b81600360006101000a81548173ffffffffffffffffffffffffffffffffffffffff021916908373ffffffffffffffffffffffffffffffffffffffff1602179055508073ffffffffffffffffffffffffffffffffffffffff1663358177736040518163ffffffff167c01000000000000000000000000000000000000000000000000000000000281526004018080602001828103825260078152602001807f424f4e4441474500000000000000000000000000000000000000000000000000815250602001915050602060405180830381600087803b158015620002d957600080fd5b505af1158015620002ee573d6000803e3d6000fd5b505050506040513d60208110156200030557600080fd5b8101908080519060200190929190505050600660006101000a81548173ffffffffffffffffffffffffffffffffffffffff021916908373ffffffffffffffffffffffffffffffffffffffff1602179055508073ffffffffffffffffffffffffffffffffffffffff1663358177736040518163ffffffff167c01000000000000000000000000000000000000000000000000000000000281526004018080602001828103825260088152602001807f4449535041544348000000000000000000000000000000000000000000000000815250602001915050602060405180830381600087803b158015620003f757600080fd5b505af11580156200040c573d6000803e3d6000fd5b505050506040513d60208110156200042357600080fd5b8101908080519060200190929190505050600760006101000a81548173ffffffffffffffffffffffffffffffffffffffff021916908373ffffffffffffffffffffffffffffffffffffffff1602179055508073ffffffffffffffffffffffffffffffffffffffff1663358177736040518163ffffffff167c01000000000000000000000000000000000000000000000000000000000281526004018080602001828103825260098152602001807f5a41505f544f4b454e0000000000000000000000000000000000000000000000815250602001915050602060405180830381600087803b1580156200051557600080fd5b505af11580156200052a573d6000803e3d6000fd5b505050506040513d60208110156200054157600080fd5b8101908080519060200190929190505050600560006101000a81548173ffffffffffffffffffffffffffffffffffffffff021916908373ffffffffffffffffffffffffffffffffffffffff160217905550505061435a80620005a46000396000f3006080604052600436106200011b576000357c0100000000000000000000000000000000000000000000000000000000900463ffffffff16806306661abd146200012057806310d3d22e146200014e5780634716edf014620001e35780634c72f98114620002f85780634d655aff14620003e2578063509a57e4146200043c5780636cecad231462000496578063700eae7314620004f0578063715018a6146200056157806375c635ac146200057b5780638797bf8814620005ef5780638da5cb5b14620006315780638f32d59b146200068b578063b2bbd2db14620006bd578063b7c5e1011462000764578063d44fbf371462000895578063dde59ba91462000922578063f2c0d392146200099e578063f2fde38b1462000a00575b600080fd5b3480156200012d57600080fd5b506200013862000a46565b6040518082815260200191505060405180910390f35b3480156200015b57600080fd5b5062000192600480360381019080803573ffffffffffffffffffffffffffffffffffffffff16906020019092919050505062000a4c565b604051808373ffffffffffffffffffffffffffffffffffffffff1673ffffffffffffffffffffffffffffffffffffffff16815260200182600019166000191681526020019250505060405180910390f35b348015620001f057600080fd5b5062000227600480360381019080803573ffffffffffffffffffffffffffffffffffffffff16906020019092919050505062000b03565b60405180806020018781526020018681526020018581526020018473ffffffffffffffffffffffffffffffffffffffff1673ffffffffffffffffffffffffffffffffffffffff16815260200183151515158152602001828103825288818151815260200191508051906020019080838360005b83811015620002b75780820151818401526020810190506200029a565b50505050905090810190601f168015620002e55780820380516001836020036101000a031916815260200191505b5097505050505050505060405180910390f35b620003a0600480360381019080803590602001908201803590602001908080601f0160208091040260200160405190810160405280939291908181526020018383808284378201915050505050509192919290803590602001909291908035906020019092919080359060200190929190803573ffffffffffffffffffffffffffffffffffffffff169060200190929190803560001916906020019092919050505062000c52565b604051808273ffffffffffffffffffffffffffffffffffffffff1673ffffffffffffffffffffffffffffffffffffffff16815260200191505060405180910390f35b348015620003ef57600080fd5b50620003fa6200138c565b604051808273ffffffffffffffffffffffffffffffffffffffff1673ffffffffffffffffffffffffffffffffffffffff16815260200191505060405180910390f35b3480156200044957600080fd5b50620004946004803603810190808035906020019092919080359060200190929190803573ffffffffffffffffffffffffffffffffffffffff169060200190929190505050620013b2565b005b348015620004a357600080fd5b50620004da600480360381019080803573ffffffffffffffffffffffffffffffffffffffff1690602001909291905050506200142a565b6040518082815260200191505060405180910390f35b348015620004fd57600080fd5b506200050862001684565b6040518080602001828103825283818151815260200191508051906020019060200280838360005b838110156200054d57808201518184015260208101905062000530565b505050509050019250505060405180910390f35b3480156200056e57600080fd5b50620005796200185e565b005b3480156200058857600080fd5b50620005ad60048036038101908080356000191690602001909291905050506200191d565b604051808273ffffffffffffffffffffffffffffffffffffffff1673ffffffffffffffffffffffffffffffffffffffff16815260200191505060405180910390f35b6200062f600480360381019080803573ffffffffffffffffffffffffffffffffffffffff16906020019092919080359060200190929190505050620019fd565b005b3480156200063e57600080fd5b506200064962001b2d565b604051808273ffffffffffffffffffffffffffffffffffffffff1673ffffffffffffffffffffffffffffffffffffffff16815260200191505060405180910390f35b3480156200069857600080fd5b50620006a362001b57565b604051808215151515815260200191505060405180910390f35b348015620006ca57600080fd5b506200070b600480360381019080803573ffffffffffffffffffffffffffffffffffffffff1690602001909291908035906020019092919050505062001baf565b6040518080602001828103825283818151815260200191508051906020019060200280838360005b838110156200075057808201518184015260208101905062000733565b505050509050019250505060405180910390f35b3480156200077157600080fd5b50620007a8600480360381019080803573ffffffffffffffffffffffffffffffffffffffff16906020019092919050505062001cbf565b60405180806020018060200180602001848103845287818151815260200191508051906020019060200280838360005b83811015620007f5578082015181840152602081019050620007d8565b50505050905001848103835286818151815260200191508051906020019060200280838360005b83811015620008395780820151818401526020810190506200081c565b50505050905001848103825285818151815260200191508051906020019060200280838360005b838110156200087d57808201518184015260208101905062000860565b50505050905001965050505050505060405180910390f35b348015620008a257600080fd5b50620008ad62001e70565b604051808373ffffffffffffffffffffffffffffffffffffffff1673ffffffffffffffffffffffffffffffffffffffff1681526020018273ffffffffffffffffffffffffffffffffffffffff1673ffffffffffffffffffffffffffffffffffffffff1681526020019250505060405180910390f35b3480156200092f57600080fd5b506200099c600480360381019080803590602001908201803590602001919091929391929390803573ffffffffffffffffffffffffffffffffffffffff16906020019092919080359060200190929190803590602001909291908035906020019092919050505062001ec1565b005b348015620009ab57600080fd5b50620009e2600480360381019080803573ffffffffffffffffffffffffffffffffffffffff16906020019092919050505062001f69565b60405180826000191660001916815260200191505060405180910390f35b34801562000a0d57600080fd5b5062000a44600480360381019080803573ffffffffffffffffffffffffffffffffffffffff16906020019092919050505062002019565b005b60025481565b6000808273ffffffffffffffffffffffffffffffffffffffff1663833b1fce6040518163ffffffff167c01000000000000000000000000000000000000000000000000000000000281526004016040805180830381600087803b15801562000ab357600080fd5b505af115801562000ac8573d6000803e3d6000fd5b505050506040513d604081101562000adf57600080fd5b81019080805190602001909291908051906020019092919050505091509150915091565b606060008060008060008673ffffffffffffffffffffffffffffffffffffffff16635a9b0b896040518163ffffffff167c0100000000000000000000000000000000000000000000000000000000028152600401600060405180830381600087803b15801562000b7257600080fd5b505af115801562000b87573d6000803e3d6000fd5b505050506040513d6000823e3d601f19601f8201168201806040525060c081101562000bb257600080fd5b81019080805164010000000081111562000bcb57600080fd5b8281019050602081018481111562000be257600080fd5b815185600182028301116401000000008211171562000c0057600080fd5b5050929190602001805190602001909291908051906020019092919080519060200190929190805190602001909291908051906020019092919050505095509550955095509550955091939550919395565b60008060008060016000808282540192505081905550600054905034338b8b8b8b8b8b600660009054906101000a900473ffffffffffffffffffffffffffffffffffffffff16600760009054906101000a900473ffffffffffffffffffffffffffffffffffffffff1662000cc56200213a565b808a73ffffffffffffffffffffffffffffffffffffffff1673ffffffffffffffffffffffffffffffffffffffff168152602001806020018981526020018881526020018781526020018673ffffffffffffffffffffffffffffffffffffffff1673ffffffffffffffffffffffffffffffffffffffff16815260200185600019166000191681526020018473ffffffffffffffffffffffffffffffffffffffff1673ffffffffffffffffffffffffffffffffffffffff1681526020018373ffffffffffffffffffffffffffffffffffffffff1673ffffffffffffffffffffffffffffffffffffffff16815260200182810382528a818151815260200191508051906020019080838360005b8381101562000dec57808201518184015260208101905062000dcf565b50505050905090810190601f16801562000e1a5780820380516001836020036101000a031916815260200191505b509a50505050505050505050506040518091039082f08015801562000e43573d6000803e3d6000fd5b509050925033838b8b8b604051602001808673ffffffffffffffffffffffffffffffffffffffff1673ffffffffffffffffffffffffffffffffffffffff166c010000000000000000000000000281526014018573ffffffffffffffffffffffffffffffffffffffff1673ffffffffffffffffffffffffffffffffffffffff166c0100000000000000000000000002815260140184805190602001908083835b60208310151562000f09578051825260208201915060208101905060208303925062000ee2565b6001836020036101000a038019825116818451168082178552505050505050905001838152602001828152602001955050505050506040516020818303038152906040526040518082805190602001908083835b60208310151562000f84578051825260208201915060208101905060208303925062000f5d565b6001836020036101000a038019825116818451168082178552505050505050905001915050604051809103902091508273ffffffffffffffffffffffffffffffffffffffff166349bfcf02836040518263ffffffff167c0100000000000000000000000000000000000000000000000000000000028152600401808260001916600019168152602001915050600060405180830381600087803b1580156200102b57600080fd5b505af115801562001040573d6000803e3d6000fd5b50505050600360009054906101000a900473ffffffffffffffffffffffffffffffffffffffff1673ffffffffffffffffffffffffffffffffffffffff1663ca446dd983856040518363ffffffff167c01000000000000000000000000000000000000000000000000000000000281526004018083600019166000191681526020018273ffffffffffffffffffffffffffffffffffffffff1673ffffffffffffffffffffffffffffffffffffffff16815260200192505050600060405180830381600087803b1580156200111257600080fd5b505af115801562001127573d6000803e3d6000fd5b50505050600360009054906101000a900473ffffffffffffffffffffffffffffffffffffffff1673ffffffffffffffffffffffffffffffffffffffff16638d152d7860405160200180807f416c6c5072656469637473000000000000000000000000000000000000000000815250600b0190506040516020818303038152906040526040518082805190602001908083835b602083101515620011e05780518252602082019150602081019050602083039250620011b9565b6001836020036101000a0380198251168184511680821785525050505050509050019150506040518091039020846040518363ffffffff167c0100000000000000000000000000000000000000000000000000000000028152600401808360001916600019168152602001826000191660001916815260200192505050600060405180830381600087803b1580156200127857600080fd5b505af11580156200128d573d6000803e3d6000fd5b50505050878983600019167f14fba8ba95032c042871772eed2f663e40d58a01ab3351bf94a7519f61a122918d8760405180806020018373ffffffffffffffffffffffffffffffffffffffff1673ffffffffffffffffffffffffffffffffffffffff168152602001828103825284818151815260200191508051906020019080838360005b838110156200132f57808201518184015260208101905062001312565b50505050905090810190601f1680156200135d5780820380516001836020036101000a031916815260200191505b50935050505060405180910390a4829350600054811415156200137f57600080fd5b5050509695505050505050565b600360009054906101000a900473ffffffffffffffffffffffffffffffffffffffff1681565b7f27cab52a4a97f2984ad74ea176d5bb66b8acecab5e3f27b077d02c5ba037574e838383604051808481526020018381526020018273ffffffffffffffffffffffffffffffffffffffff1673ffffffffffffffffffffffffffffffffffffffff168152602001935050505060405180910390a1505050565b60008060006001600080828254019250508190555060005490508373ffffffffffffffffffffffffffffffffffffffff1663faf7ba6a6040518163ffffffff167c0100000000000000000000000000000000000000000000000000000000028152600401602060405180830381600087803b158015620014a957600080fd5b505af1158015620014be573d6000803e3d6000fd5b505050506040513d6020811015620014d557600080fd5b8101908080519060200190929190505050151562001581576040517f08c379a000000000000000000000000000000000000000000000000000000000815260040180806020018281038252602a8152602001807f7468697320707265646963742063616e7420626520736574746c65642061742081526020017f746865206d6f6d656e740000000000000000000000000000000000000000000081525060400191505060405180910390fd5b8373ffffffffffffffffffffffffffffffffffffffff1663336ccb296040518163ffffffff167c0100000000000000000000000000000000000000000000000000000000028152600401602060405180830381600087803b158015620015e657600080fd5b505af1158015620015fb573d6000803e3d6000fd5b505050506040513d60208110156200161257600080fd5b81019080805190602001909291905050509150818473ffffffffffffffffffffffffffffffffffffffff167f483d9e75f8f5eef275d9d9517a110b05cf86affb84a9973d0b95e48a8d4e193060405160405180910390a3819250600054811415156200167d57600080fd5b5050919050565b6060600360009054906101000a900473ffffffffffffffffffffffffffffffffffffffff1673ffffffffffffffffffffffffffffffffffffffff16638db0e83b60405160200180807f416c6c5072656469637473000000000000000000000000000000000000000000815250600b0190506040516020818303038152906040526040518082805190602001908083835b6020831015156200173b578051825260208201915060208101905060208303925062001714565b6001836020036101000a03801982511681845116808217855250505050505090500191505060405180910390206040518263ffffffff167c0100000000000000000000000000000000000000000000000000000000028152600401808260001916600019168152602001915050600060405180830381600087803b158015620017c357600080fd5b505af1158015620017d8573d6000803e3d6000fd5b505050506040513d6000823e3d601f19601f8201168201806040525060208110156200180357600080fd5b8101908080516401000000008111156200181c57600080fd5b828101905060208101848111156200183357600080fd5b81518560208202830111640100000000821117156200185157600080fd5b5050929190505050905090565b6200186862001b57565b15156200187457600080fd5b600160009054906101000a900473ffffffffffffffffffffffffffffffffffffffff1673ffffffffffffffffffffffffffffffffffffffff167ff8df31144d9c2f0f6b59d69b8b98abd5459d07f2742c4df920b25aae33c6482060405160405180910390a26000600160006101000a81548173ffffffffffffffffffffffffffffffffffffffff021916908373ffffffffffffffffffffffffffffffffffffffff160217905550565b6000600360009054906101000a900473ffffffffffffffffffffffffffffffffffffffff1673ffffffffffffffffffffffffffffffffffffffff166321f8a721836040518263ffffffff167c0100000000000000000000000000000000000000000000000000000000028152600401808260001916600019168152602001915050602060405180830381600087803b158015620019b957600080fd5b505af1158015620019ce573d6000803e3d6000fd5b505050506040513d6020811015620019e557600080fd5b81019080805190602001909291905050509050919050565b60006001600080828254019250508190555060005490508273ffffffffffffffffffffffffffffffffffffffff16638797bf883433856040518463ffffffff167c0100000000000000000000000000000000000000000000000000000000028152600401808373ffffffffffffffffffffffffffffffffffffffff1673ffffffffffffffffffffffffffffffffffffffff168152602001828152602001925050506000604051808303818588803b15801562001ab857600080fd5b505af115801562001acd573d6000803e3d6000fd5b505050505034828473ffffffffffffffffffffffffffffffffffffffff167ffb184f4868ab5626761f827f461de9d41e3264d98621d99812ebb9b34ba0aaa160405160405180910390a46000548114151562001b2857600080fd5b505050565b6000600160009054906101000a900473ffffffffffffffffffffffffffffffffffffffff16905090565b6000600160009054906101000a900473ffffffffffffffffffffffffffffffffffffffff1673ffffffffffffffffffffffffffffffffffffffff163373ffffffffffffffffffffffffffffffffffffffff1614905090565b60608273ffffffffffffffffffffffffffffffffffffffff1663dbefd04b836040518263ffffffff167c010000000000000000000000000000000000000000000000000000000002815260040180828152602001915050600060405180830381600087803b15801562001c2157600080fd5b505af115801562001c36573d6000803e3d6000fd5b505050506040513d6000823e3d601f19601f82011682018060405250602081101562001c6157600080fd5b81019080805164010000000081111562001c7a57600080fd5b8281019050602081018481111562001c9157600080fd5b815185602082028301116401000000008211171562001caf57600080fd5b5050929190505050905092915050565b60608060608373ffffffffffffffffffffffffffffffffffffffff16635aa68ac06040518163ffffffff167c0100000000000000000000000000000000000000000000000000000000028152600401600060405180830381600087803b15801562001d2957600080fd5b505af115801562001d3e573d6000803e3d6000fd5b505050506040513d6000823e3d601f19601f82011682018060405250606081101562001d6957600080fd5b81019080805164010000000081111562001d8257600080fd5b8281019050602081018481111562001d9957600080fd5b815185602082028301116401000000008211171562001db757600080fd5b5050929190602001805164010000000081111562001dd457600080fd5b8281019050602081018481111562001deb57600080fd5b815185602082028301116401000000008211171562001e0957600080fd5b5050929190602001805164010000000081111562001e2657600080fd5b8281019050602081018481111562001e3d57600080fd5b815185602082028301116401000000008211171562001e5b57600080fd5b50509291905050509250925092509193909250565b600080600760009054906101000a900473ffffffffffffffffffffffffffffffffffffffff16600660009054906101000a900473ffffffffffffffffffffffffffffffffffffffff16915091509091565b7f12d08f83cc10a535fab2551add02809deb60a512ceeabdd09552f62edc5cfdf286868686868660405180806020018673ffffffffffffffffffffffffffffffffffffffff1673ffffffffffffffffffffffffffffffffffffffff1681526020018581526020018481526020018381526020018281038252888882818152602001925060200280828437820191505097505050505050505060405180910390a1505050505050565b6000808273ffffffffffffffffffffffffffffffffffffffff16635d1ca6316040518163ffffffff167c0100000000000000000000000000000000000000000000000000000000028152600401602060405180830381600087803b15801562001fd157600080fd5b505af115801562001fe6573d6000803e3d6000fd5b505050506040513d602081101562001ffd57600080fd5b8101908080519060200190929190505050905080915050919050565b6200202362001b57565b15156200202f57600080fd5b6200203a816200203d565b50565b600073ffffffffffffffffffffffffffffffffffffffff168173ffffffffffffffffffffffffffffffffffffffff16141515156200207a57600080fd5b8073ffffffffffffffffffffffffffffffffffffffff16600160009054906101000a900473ffffffffffffffffffffffffffffffffffffffff1673ffffffffffffffffffffffffffffffffffffffff167f8be0079c531659141344cd1fd0a4f28419497f9722a3daafe3b4186f6b6457e060405160405180910390a380600160006101000a81548173ffffffffffffffffffffffffffffffffffffffff021916908373ffffffffffffffffffffffffffffffffffffffff16021790555050565b6040516121e3806200214c8339019056006080604052600160005560016002557fffffffffffffffffffffffffffffffffffffffffffffffffffffffffffffffff6003556000600455604051620021e3380380620021e38339810180604052810190808051906020019092919080518201929190602001805190602001909291908051906020019092919080519060200190929190805190602001909291908051906020019092919080519060200190929190805190602001909291905050506000341115156200014d576040517f08c379a00000000000000000000000000000000000000000000000000000000081526004018080602001828103825260218152602001807f4e65656420746f2073656e642065746820746f2062657420746f20637265617481526020017f650000000000000000000000000000000000000000000000000000000000000081525060400191505060405180910390fd5b60018514806200015d5750600085145b806200018857507fffffffffffffffffffffffffffffffffffffffffffffffffffffffffffffffff85145b1515620001fd576040517f08c379a000000000000000000000000000000000000000000000000000000000815260040180806020018281038252600c8152602001807f696e76616c69642073696465000000000000000000000000000000000000000081525060200191505060405180910390fd5b60008611151562000276576040517f08c379a000000000000000000000000000000000000000000000000000000000815260040180806020018281038252601c8152602001807f74696d652068617320746f20626520696e20746865206675747572650000000081525060200191505060405180910390fd5b87600890805190602001906200028e9291906200053a565b508660098190555085600a8190555088600760006101000a81548173ffffffffffffffffffffffffffffffffffffffff021916908373ffffffffffffffffffffffffffffffffffffffff16021790555060408051908101604052808573ffffffffffffffffffffffffffffffffffffffff1681526020018460001916815250601360008201518160000160006101000a81548173ffffffffffffffffffffffffffffffffffffffff021916908373ffffffffffffffffffffffffffffffffffffffff1602179055506020820151816001019060001916905590505060056000868152602001908152602001600020600760009054906101000a900473ffffffffffffffffffffffffffffffffffffffff1690806001815401808255809150509060018203906000526020600020016000909192909190916101000a81548173ffffffffffffffffffffffffffffffffffffffff021916908373ffffffffffffffffffffffffffffffffffffffff160217905550503460066000600760009054906101000a900473ffffffffffffffffffffffffffffffffffffffff1673ffffffffffffffffffffffffffffffffffffffff1673ffffffffffffffffffffffffffffffffffffffff1681526020019081526020016000208190555081601160006101000a81548173ffffffffffffffffffffffffffffffffffffffff021916908373ffffffffffffffffffffffffffffffffffffffff16021790555080601260006101000a81548173ffffffffffffffffffffffffffffffffffffffff021916908373ffffffffffffffffffffffffffffffffffffffff16021790555033601560006101000a81548173ffffffffffffffffffffffffffffffffffffffff021916908373ffffffffffffffffffffffffffffffffffffffff160217905550505050505050505050620005e9565b828054600181600116156101000203166002900490600052602060002090601f016020900481019282601f106200057d57805160ff1916838001178555620005ae565b82800160010185558215620005ae579182015b82811115620005ad57825182559160200191906001019062000590565b5b509050620005bd9190620005c1565b5090565b620005e691905b80821115620005e2576000816000905550600101620005c8565b5090565b90565b611bea80620005f96000396000f3006080604052600436106100ba576000357c0100000000000000000000000000000000000000000000000000000000900463ffffffff1680630abb4fe3146100bf578063336ccb29146100ea57806349bfcf02146101155780635a9b0b89146101465780635aa68ac0146102295780635d1ca63114610325578063833b1fce146103585780638797bf88146103be57806399ff48af146103fe578063af640d0f1461046e578063dbefd04b146104a1578063faf7ba6a14610523575b600080fd5b3480156100cb57600080fd5b506100d4610552565b6040518082815260200191505060405180910390f35b3480156100f657600080fd5b506100ff6105c6565b6040518082815260200191505060405180910390f35b34801561012157600080fd5b506101446004803603810190808035600019169060200190929190505050610aa9565b005b34801561015257600080fd5b5061015b610ab7565b60405180806020018781526020018681526020018581526020018473ffffffffffffffffffffffffffffffffffffffff1673ffffffffffffffffffffffffffffffffffffffff16815260200183151515158152602001828103825288818151815260200191508051906020019080838360005b838110156101e95780820151818401526020810190506101ce565b50505050905090810190601f1680156102165780820380516001836020036101000a031916815260200191505b5097505050505050505060405180910390f35b34801561023557600080fd5b5061023e610bc7565b60405180806020018060200180602001848103845287818151815260200191508051906020019060200280838360005b8381101561028957808201518184015260208101905061026e565b50505050905001848103835286818151815260200191508051906020019060200280838360005b838110156102cb5780820151818401526020810190506102b0565b50505050905001848103825285818151815260200191508051906020019060200280838360005b8381101561030d5780820151818401526020810190506102f2565b50505050905001965050505050505060405180910390f35b34801561033157600080fd5b5061033a610dc9565b60405180826000191660001916815260200191505060405180910390f35b34801561036457600080fd5b5061036d610dd3565b604051808373ffffffffffffffffffffffffffffffffffffffff1673ffffffffffffffffffffffffffffffffffffffff16815260200182600019166000191681526020019250505060405180910390f35b6103fc600480360381019080803573ffffffffffffffffffffffffffffffffffffffff16906020019092919080359060200190929190505050610e0a565b005b34801561040a57600080fd5b5061046c6004803603810190808035906020019092919080359060200190820180359060200190808060200260200160405190810160405280939291908181526020018383602002808284378201915050505050509192919290505050611191565b005b34801561047a57600080fd5b50610483611539565b60405180826000191660001916815260200191505060405180910390f35b3480156104ad57600080fd5b506104cc6004803603810190808035906020019092919050505061153f565b6040518080602001828103825283818151815260200191508051906020019060200280838360005b8381101561050f5780820151818401526020810190506104f4565b505050509050019250505060405180910390f35b34801561052f57600080fd5b506105386115e0565b604051808215151515815260200191505060405180910390f35b6000806005600060018152602001908152602001600020805490506005600080815260200190815260200160002080549050600560007fffffffffffffffffffffffffffffffffffffffffffffffffffffffffffffffff815260200190815260200160002080549050010190508091505090565b60008060608060606000606060003073ffffffffffffffffffffffffffffffffffffffff1631111515610687576040517f08c379a000000000000000000000000000000000000000000000000000000000815260040180806020018281038252602c8152602001807f6e6f206574682062616c616e636520696e207468697320636f6e74726163742c81526020017f2063616e7420736574746c65000000000000000000000000000000000000000081525060400191505060405180910390fd5b600c60009054906101000a900460ff1615151561070c576040517f08c379a000000000000000000000000000000000000000000000000000000000815260040180806020018281038252600f8152602001807f616c726561647920736574746c6564000000000000000000000000000000000081525060200191505060405180910390fd5b610714610552565b95506001861115156107a957600760009054906101000a900473ffffffffffffffffffffffffffffffffffffffff1673ffffffffffffffffffffffffffffffffffffffff166108fc3073ffffffffffffffffffffffffffffffffffffffff16319081150290604051600060405180830381858888f1935050505015801561079f573d6000803e3d6000fd5b5060009650610aa0565b6107b1610bc7565b94509450945082518614156107e8577fffffffffffffffffffffffffffffffffffffffffffffffffffffffffffffffff9150610813565b83518614156107fa5760009150610812565b845186141561080c5760019150610811565b600a91505b5b5b600a82121561082e57610825826115f8565b60009650610aa0565b600160405190808252806020026020018201604052801561085e5781602001602082028038833980820191505090505b509050600a5460010281600081518110151561087657fe5b906020019060200201906000191690816000191681525050601260009054906101000a900473ffffffffffffffffffffffffffffffffffffffff1673ffffffffffffffffffffffffffffffffffffffff16637de7cc66601360000160009054906101000a900473ffffffffffffffffffffffffffffffffffffffff166008601360010154856040518563ffffffff167c0100000000000000000000000000000000000000000000000000000000028152600401808573ffffffffffffffffffffffffffffffffffffffff1673ffffffffffffffffffffffffffffffffffffffff168152602001806020018460001916600019168152602001806020018381038352868181546001816001161561010002031660029004815260200191508054600181600116156101000203166002900480156109f35780601f106109c8576101008083540402835291602001916109f3565b820191906000526020600020905b8154815290600101906020018083116109d657829003601f168201915b5050838103825284818151815260200191508051906020019060200280838360005b83811015610a30578082015181840152602081019050610a15565b505050509050019650505050505050602060405180830381600087803b158015610a5957600080fd5b505af1158015610a6d573d6000803e3d6000fd5b505050506040513d6020811015610a8357600080fd5b8101908080519060200190929190505050600e81905550600e5496505b50505050505090565b806001816000191690555050565b606060008060008060006008600954600a543073ffffffffffffffffffffffffffffffffffffffff1631601360000160009054906101000a900473ffffffffffffffffffffffffffffffffffffffff16600c60009054906101000a900460ff16858054600181600116156101000203166002900480601f016020809104026020016040519081016040528092919081815260200182805460018160011615610100020316600290048015610bac5780601f10610b8157610100808354040283529160200191610bac565b820191906000526020600020905b815481529060010190602001808311610b8f57829003601f168201915b50505050509550955095509550955095509550909192939495565b6060806060600560007fffffffffffffffffffffffffffffffffffffffffffffffffffffffffffffffff815260200190815260200160002060056000808152602001908152602001600020600560006001815260200190815260200160002082805480602002602001604051908101604052809291908181526020018280548015610ca757602002820191906000526020600020905b8160009054906101000a900473ffffffffffffffffffffffffffffffffffffffff1673ffffffffffffffffffffffffffffffffffffffff1681526020019060010190808311610c5d575b5050505050925081805480602002602001604051908101604052809291908181526020018280548015610d2f57602002820191906000526020600020905b8160009054906101000a900473ffffffffffffffffffffffffffffffffffffffff1673ffffffffffffffffffffffffffffffffffffffff1681526020019060010190808311610ce5575b5050505050915080805480602002602001604051908101604052809291908181526020018280548015610db757602002820191906000526020600020905b8160009054906101000a900473ffffffffffffffffffffffffffffffffffffffff1673ffffffffffffffffffffffffffffffffffffffff1681526020019060010190808311610d6d575b50505050509050925092509250909192565b6000600154905090565b600080601360000160009054906101000a900473ffffffffffffffffffffffffffffffffffffffff16601360010154915091509091565b6001811480610e195750600081145b80610e4357507fffffffffffffffffffffffffffffffffffffffffffffffffffffffffffffffff81145b1515610eb7576040517f08c379a000000000000000000000000000000000000000000000000000000000815260040180806020018281038252600c8152602001807f696e76616c69642073696465000000000000000000000000000000000000000081525060200191505060405180910390fd5b600760009054906101000a900473ffffffffffffffffffffffffffffffffffffffff1673ffffffffffffffffffffffffffffffffffffffff168273ffffffffffffffffffffffffffffffffffffffff1614151515610f7d576040517f08c379a000000000000000000000000000000000000000000000000000000000815260040180806020018281038252600f8152602001807f6d616b65722063616e742074616b65000000000000000000000000000000000081525060200191505060405180910390fd5b60003411151561101b576040517f08c379a00000000000000000000000000000000000000000000000000000000081526004018080602001828103825260238152602001807f4e65656420746f20696e636c7564652065746820746f2074616b65207468652081526020017f626574000000000000000000000000000000000000000000000000000000000081525060400191505060405180910390fd5b6000600660008473ffffffffffffffffffffffffffffffffffffffff1673ffffffffffffffffffffffffffffffffffffffff168152602001908152602001600020541415156110d2576040517f08c379a00000000000000000000000000000000000000000000000000000000081526004018080602001828103825260138152602001807f616c726561647920616e7469636970617465640000000000000000000000000081525060200191505060405180910390fd5b34600660008473ffffffffffffffffffffffffffffffffffffffff1673ffffffffffffffffffffffffffffffffffffffff16815260200190815260200160002081905550600560008281526020019081526020016000208290806001815401808255809150509060018203906000526020600020016000909192909190916101000a81548173ffffffffffffffffffffffffffffffffffffffff021916908373ffffffffffffffffffffffffffffffffffffffff160217905550505050565b6000600160008082825401925050819055506000549050601260009054906101000a900473ffffffffffffffffffffffffffffffffffffffff1673ffffffffffffffffffffffffffffffffffffffff163373ffffffffffffffffffffffffffffffffffffffff1614151561126d576040517f08c379a00000000000000000000000000000000000000000000000000000000081526004018080602001828103825260158152602001807f756e617574686f72697a656420726573706f6e7365000000000000000000000081525060200191505060405180910390fd5b600e54831415156112e6576040517f08c379a00000000000000000000000000000000000000000000000000000000081526004018080602001828103825260178152602001807f6e6f74206d61746368696e67206964207175657269656400000000000000000081525060200191505060405180910390fd5b6000825111151561135f576040517f08c379a00000000000000000000000000000000000000000000000000000000081526004018080602001828103825260148152602001807f6e6f20726573706f6e736520646574656374656400000000000000000000000081525060200191505060405180910390fd5b81600081518110151561136e57fe5b90602001906020020151600d819055506000600d541115156113f8576040517f08c379a000000000000000000000000000000000000000000000000000000000815260040180806020018281038252600f8152602001807f70726963652063616e742062652030000000000000000000000000000000000081525060200191505060405180910390fd5b601560009054906101000a900473ffffffffffffffffffffffffffffffffffffffff1673ffffffffffffffffffffffffffffffffffffffff1663509a57e484600d54336040518463ffffffff167c0100000000000000000000000000000000000000000000000000000000028152600401808481526020018381526020018273ffffffffffffffffffffffffffffffffffffffff1673ffffffffffffffffffffffffffffffffffffffff1681526020019350505050600060405180830381600087803b1580156114c757600080fd5b505af11580156114db573d6000803e3d6000fd5b50505050600954600d5411156114fb576114f66002546117b0565b611524565b600954600d541015611517576115126003546117b0565b611523565b6115226004546117b0565b5b5b6000548114151561153457600080fd5b505050565b60015481565b6060600560008381526020019081526020016000208054806020026020016040519081016040528092919081815260200182805480156115d457602002820191906000526020600020905b8160009054906101000a900473ffffffffffffffffffffffffffffffffffffffff1673ffffffffffffffffffffffffffffffffffffffff168152602001906001019080831161158a575b50505050509050919050565b6000600c60009054906101000a900460ff1615905090565b6060600082600181148061160c5750600081145b8061163657507fffffffffffffffffffffffffffffffffffffffffffffffffffffffffffffffff81145b151561164157600080fd5b600560008581526020019081526020016000208054806020026020016040519081016040528092919081815260200182805480156116d457602002820191906000526020600020905b8160009054906101000a900473ffffffffffffffffffffffffffffffffffffffff1673ffffffffffffffffffffffffffffffffffffffff168152602001906001019080831161168a575b50505050509250600091505b82518210156117aa5782828151811015156116f757fe5b9060200190602002015173ffffffffffffffffffffffffffffffffffffffff166108fc60066000868681518110151561172c57fe5b9060200190602002015173ffffffffffffffffffffffffffffffffffffffff1673ffffffffffffffffffffffffffffffffffffffff168152602001908152602001600020549081150290604051600060405180830381858888f1935050505015801561179c573d6000803e3d6000fd5b5081806001019250506116e0565b50505050565b60606000806000806000806000600560008a815260200190815260200160002080548060200260200160405190810160405280929190818152602001828054801561185057602002820191906000526020600020905b8160009054906101000a900473ffffffffffffffffffffffffffffffffffffffff1673ffffffffffffffffffffffffffffffffffffffff1681526020019060010190808311611806575b5050505050975060009650600094505b87518510156118e1576118d2600660008a8881518110151561187e57fe5b9060200190602002015173ffffffffffffffffffffffffffffffffffffffff1673ffffffffffffffffffffffffffffffffffffffff1681526020019081526020016000205488611b7390919063ffffffff16565b96508480600101955050611860565b863073ffffffffffffffffffffffffffffffffffffffff1631039350600092505b8751831015611a3057878381518110151561191957fe5b9060200190602002015191506119da61198c61197d600660008673ffffffffffffffffffffffffffffffffffffffff1673ffffffffffffffffffffffffffffffffffffffff168152602001908152602001600020548a611b9490919063ffffffff16565b86611b9490919063ffffffff16565b600660008573ffffffffffffffffffffffffffffffffffffffff1673ffffffffffffffffffffffffffffffffffffffff16815260200190815260200160002054611b7390919063ffffffff16565b90508173ffffffffffffffffffffffffffffffffffffffff166108fc829081150290604051600060405180830381858888f19350505050158015611a22573d6000803e3d6000fd5b508280600101935050611902565b601560009054906101000a900473ffffffffffffffffffffffffffffffffffffffff1673ffffffffffffffffffffffffffffffffffffffff1663dde59ba98930600d548b896040518663ffffffff167c010000000000000000000000000000000000000000000000000000000002815260040180806020018673ffffffffffffffffffffffffffffffffffffffff1673ffffffffffffffffffffffffffffffffffffffff168152602001858152602001848152602001838152602001828103825287818151815260200191508051906020019060200280838360005b83811015611b27578082015181840152602081019050611b0c565b505050509050019650505050505050600060405180830381600087803b158015611b5057600080fd5b505af1158015611b64573d6000803e3d6000fd5b50505050505050505050505050565b6000808284019050838110151515611b8a57600080fd5b8091505092915050565b600080600083111515611ba657600080fd5b8284811515611bb157fe5b04905080915050929150505600a165627a7a7230582038e3d431c9be5200282b66a8e36d768a575312358b1223b1192ddb7852c949280029a165627a7a72305820f96564cb92f8549cee23320d7a46f83b3ea1cf4403498710f8c9b07f291ddad20029",
  "source": "pragma solidity ^0.4.24;\nimport \"../database/Idatabase.sol\";\nimport \"../Ownable.sol\";\nimport \"../SafeMath.sol\";\nimport \"../ReentrancyGuard.sol\";\nimport \"../zap/ZapBridge.sol\";\nimport \"./PricePredict.sol\";\nimport \"./Ipredict.sol\";\n\n/** Price betting contract*/\ncontract PredictFactory is ReentrancyGuard,Ownable{\n\n    uint256 public count;\n\n    //Database\n    Idatabase public db;\n    Ipredict Predict;\n    address zapToken;\n    address bondage;\n    address dispatch;\n\n    //events\n    event JoinPredict(address indexed player, int256 indexed side, uint256 indexed amount);\n    event SettlingPrediction(address indexed predict, uint256 indexed queryId);\n    event PredictCreated(bytes32 indexed id, uint256 indexed price, uint256 indexed ti, string coin,address newPredict);\n    event Settled(address[] winners, address predict, uint256 resultPrice, uint256 winAmount, uint256 lostAmount);\n    event Callback(uint256 id, uint256 response, address sender);\n\n    constructor(address _dbAddress, address _zapCoor) public{\n        require(_dbAddress != address(0),\"db address is required\");\n        require(_zapCoor != address(0), \"Zap Coordinator address is required\");\n        db = Idatabase(_dbAddress);\n        bondage = ZapBridge(_zapCoor).getContract(\"BONDAGE\");\n        dispatch = ZapBridge(_zapCoor).getContract(\"DISPATCH\");\n        zapToken = ZapBridge(_zapCoor).getContract(\"ZAP_TOKEN\");\n    }\n\n    function createPredict(string memory _coin, uint256 _price, uint256 _time, int256 _side, address _oracle, bytes32 _endpoint)  payable nonReentrant returns(address){\n        address newPredict = (new PricePredict).value(msg.value)(msg.sender,_coin,_price,_time,_side, _oracle, _endpoint,bondage,dispatch);\n        bytes32 id = keccak256(abi.encodePacked(msg.sender,newPredict,_coin,_price,_time));\n        PricePredict(newPredict).setId(id);\n        db.setAddress(id,newPredict);\n        db.pushBytesArray(keccak256(abi.encodePacked(\"AllPredicts\")),id);\n        emit PredictCreated(id,_price,_time,_coin,newPredict);\n        return newPredict;\n    }\n\n    function joinPrediction(address _predict, int _side) external payable nonReentrant {\n        (Ipredict(_predict).joinPrediction).value(msg.value)(msg.sender,_side);\n        emit JoinPredict(_predict,_side,msg.value);\n    }\n\n    /**\n    Anyone can call settle and spend gas on executing this\n   this call is to query Provider , it doesnt guarantee that the prediction will be settled,\n   Depends on the settle time, condition, the query will be called and when oracle call callback methods on the prediction methods\n   that's when the\n    */\n    function settlePrediction(address _predict) external nonReentrant returns(uint256){\n        require(Ipredict(_predict).canSettle(),\"this predict cant be settled at the moment\");\n        uint256 queryId = Ipredict(_predict).settlePrediction();\n        emit SettlingPrediction(_predict,queryId);\n        return queryId;\n    }\n\n    function getPredictInfo(address _predict) public view returns(string, uint, uint, uint, address, bool){\n        return Ipredict(_predict).getInfo();\n    }\n\n    function getZapBridge() public view returns (address, address){\n        return (dispatch,bondage);\n    }\n    function getOracle(address _predict) public view returns (address,bytes32){\n        return Ipredict(_predict).getOracle();\n    }\n\n    function getPredictAddress(bytes32 id) public view returns(address){\n        return db.getAddress(id);\n    }\n\n    function getPredictId(address _predict) public view returns(bytes32){\n        bytes32 id =  Ipredict(_predict).getId();\n        return id;\n    }\n\n    function getAllBets() public view returns (bytes32[]){\n        return db.getBytesArray(keccak256(abi.encodePacked(\"AllPredicts\")));\n    }\n\n    function getParticipants(address _predict) public view returns (address[],address[],address[]){\n        return Ipredict(_predict).getParticipants();\n    }\n    function getSide(address _predict,int _side) public view returns(address[]){\n        return  Ipredict(_predict).getSide(_side);\n    }\n\n    function emitSettled(address[] winner,address predict, uint256 _price, uint256 _winAmount, uint256 _lostAmount) external {\n        emit Settled(winner,predict,_price, _winAmount, _lostAmount);\n    }\n\n    function emitCallback(uint256 id, uint256 response,address sender){\n        emit Callback(id,response,sender);\n    }\n}\n",
  "sourcePath": "/home/kim/ZAP/betContracts/contracts/predict/PredictFactory.sol",
  "compiler": {
    "name": "solc",
    "version": "0.4.24+commit.e67f0147.Emscripten.clang"
  },
  "schemaVersion": "2.0.1",
  "updatedAt": "2018-10-19T21:52:49.451Z"
}