{
  "contractName": "priceBet",
  "abi": [
    {
      "constant": true,
      "inputs": [],
      "name": "inplay",
      "outputs": [
        {
          "name": "",
          "type": "bool"
        }
      ],
      "payable": false,
      "stateMutability": "view",
      "type": "function"
    },
    {
      "constant": true,
      "inputs": [],
      "name": "provider",
      "outputs": [
        {
          "name": "",
          "type": "address"
        }
      ],
      "payable": false,
      "stateMutability": "view",
      "type": "function"
    },
    {
      "constant": true,
      "inputs": [],
      "name": "coordinator",
      "outputs": [
        {
          "name": "",
          "type": "address"
        }
      ],
      "payable": false,
      "stateMutability": "view",
      "type": "function"
    },
    {
      "constant": true,
      "inputs": [],
      "name": "coin",
      "outputs": [
        {
          "name": "",
          "type": "string"
        }
      ],
      "payable": false,
      "stateMutability": "view",
      "type": "function"
    },
    {
      "constant": true,
      "inputs": [],
      "name": "player2",
      "outputs": [
        {
          "name": "",
          "type": "address"
        }
      ],
      "payable": false,
      "stateMutability": "view",
      "type": "function"
    },
    {
      "constant": true,
      "inputs": [],
      "name": "endpoint",
      "outputs": [
        {
          "name": "",
          "type": "bytes32"
        }
      ],
      "payable": false,
      "stateMutability": "view",
      "type": "function"
    },
    {
      "constant": true,
      "inputs": [],
      "name": "expire",
      "outputs": [
        {
          "name": "",
          "type": "uint256"
        }
      ],
      "payable": false,
      "stateMutability": "view",
      "type": "function"
    },
    {
      "constant": true,
      "inputs": [],
      "name": "owner",
      "outputs": [
        {
          "name": "",
          "type": "address"
        }
      ],
      "payable": false,
      "stateMutability": "view",
      "type": "function"
    },
    {
      "constant": true,
      "inputs": [],
      "name": "price",
      "outputs": [
        {
          "name": "",
          "type": "uint256"
        }
      ],
      "payable": false,
      "stateMutability": "view",
      "type": "function"
    },
    {
      "constant": true,
      "inputs": [],
      "name": "id",
      "outputs": [
        {
          "name": "",
          "type": "uint256"
        }
      ],
      "payable": false,
      "stateMutability": "view",
      "type": "function"
    },
    {
      "constant": true,
      "inputs": [],
      "name": "taken",
      "outputs": [
        {
          "name": "",
          "type": "bool"
        }
      ],
      "payable": false,
      "stateMutability": "view",
      "type": "function"
    },
    {
      "constant": true,
      "inputs": [],
      "name": "higher",
      "outputs": [
        {
          "name": "",
          "type": "bool"
        }
      ],
      "payable": false,
      "stateMutability": "view",
      "type": "function"
    },
    {
      "constant": true,
      "inputs": [],
      "name": "betAmount",
      "outputs": [
        {
          "name": "",
          "type": "uint256"
        }
      ],
      "payable": false,
      "stateMutability": "view",
      "type": "function"
    },
    {
      "constant": true,
      "inputs": [],
      "name": "player1",
      "outputs": [
        {
          "name": "",
          "type": "address"
        }
      ],
      "payable": false,
      "stateMutability": "view",
      "type": "function"
    },
    {
      "inputs": [
        {
          "name": "_coordinator",
          "type": "address"
        }
      ],
      "payable": false,
      "stateMutability": "nonpayable",
      "type": "constructor"
    },
    {
      "anonymous": false,
      "inputs": [
        {
          "indexed": true,
          "name": "_winner",
          "type": "address"
        },
        {
          "indexed": true,
          "name": "_settlementAmount",
          "type": "uint256"
        },
        {
          "indexed": true,
          "name": "_finalPrice",
          "type": "uint256"
        }
      ],
      "name": "Settlement",
      "type": "event"
    },
    {
      "constant": false,
      "inputs": [
        {
          "name": "_provider",
          "type": "address"
        },
        {
          "name": "_endpoint",
          "type": "bytes32"
        }
      ],
      "name": "setProvider",
      "outputs": [],
      "payable": false,
      "stateMutability": "nonpayable",
      "type": "function"
    },
    {
      "constant": false,
      "inputs": [],
      "name": "takeBet",
      "outputs": [
        {
          "name": "",
          "type": "bool"
        }
      ],
      "payable": true,
      "stateMutability": "payable",
      "type": "function"
    },
    {
      "constant": false,
      "inputs": [
        {
          "name": "_coin",
          "type": "string"
        },
        {
          "name": "_price",
          "type": "uint256"
        },
        {
          "name": "_higher",
          "type": "bool"
        },
        {
          "name": "_expire",
          "type": "uint256"
        }
      ],
      "name": "makeBet",
      "outputs": [
        {
          "name": "success",
          "type": "bool"
        }
      ],
      "payable": true,
      "stateMutability": "payable",
      "type": "function"
    },
    {
      "constant": true,
      "inputs": [],
      "name": "getBetInfo",
      "outputs": [
        {
          "name": "",
          "type": "bool"
        },
        {
          "name": "",
          "type": "address"
        },
        {
          "name": "",
          "type": "string"
        },
        {
          "name": "",
          "type": "uint256"
        },
        {
          "name": "",
          "type": "bool"
        },
        {
          "name": "",
          "type": "uint256"
        },
        {
          "name": "",
          "type": "bool"
        },
        {
          "name": "",
          "type": "address"
        },
        {
          "name": "",
          "type": "uint256"
        }
      ],
      "payable": false,
      "stateMutability": "view",
      "type": "function"
    },
    {
      "constant": false,
      "inputs": [],
      "name": "queryProvider",
      "outputs": [
        {
          "name": "",
          "type": "uint256"
        }
      ],
      "payable": false,
      "stateMutability": "nonpayable",
      "type": "function"
    },
    {
      "constant": false,
      "inputs": [],
      "name": "reset",
      "outputs": [],
      "payable": false,
      "stateMutability": "nonpayable",
      "type": "function"
    },
    {
      "constant": false,
      "inputs": [
        {
          "name": "_id",
          "type": "uint256"
        },
        {
          "name": "_response",
          "type": "int256[]"
        }
      ],
      "name": "callback",
      "outputs": [
        {
          "name": "winner",
          "type": "address"
        }
      ],
      "payable": false,
      "stateMutability": "nonpayable",
      "type": "function"
    }
  ],
  "bytecode": "0x608060405234801561001057600080fd5b50604051602080611a6e83398101806040528101908080519060200190929190505050600033600160006101000a81548173ffffffffffffffffffffffffffffffffffffffff021916908373ffffffffffffffffffffffffffffffffffffffff1602179055506000600860016101000a81548160ff0219169083151502179055506000600860026101000a81548160ff02191690831515021790555081600360006101000a81548173ffffffffffffffffffffffffffffffffffffffff021916908373ffffffffffffffffffffffffffffffffffffffff160217905550600360009054906101000a900473ffffffffffffffffffffffffffffffffffffffff1673ffffffffffffffffffffffffffffffffffffffff1663358177736040518163ffffffff167c01000000000000000000000000000000000000000000000000000000000281526004018080602001828103825260098152602001807f5a41505f544f4b454e0000000000000000000000000000000000000000000000815250602001915050602060405180830381600087803b1580156101af57600080fd5b505af11580156101c3573d6000803e3d6000fd5b505050506040513d60208110156101d957600080fd5b8101908080519060200190929190505050905080600c60006101000a81548173ffffffffffffffffffffffffffffffffffffffff021916908373ffffffffffffffffffffffffffffffffffffffff16021790555050506118308061023e6000396000f30060806040526004361061011d576000357c0100000000000000000000000000000000000000000000000000000000900463ffffffff1680630209044e1461012257806303b5d49414610151578063085d4883146101735780630a009097146101ca57806311df9995146102215780633a4da337146102b157806359a5f12d146103455780635e280f111461039c578063767cacad146103cf57806379599f96146103fa5780638da5cb5b1461042557806399ff48af1461047c578063a035b1fe1461052c578063af640d0f14610557578063b6761a6414610582578063b7b3ebb9146105b1578063c26ce9e2146105e0578063cfe7b77014610631578063d24257c01461075d578063d30895e414610788578063d826f88f146107df575b600080fd5b34801561012e57600080fd5b506101376107f6565b604051808215151515815260200191505060405180910390f35b610159610809565b604051808215151515815260200191505060405180910390f35b34801561017f57600080fd5b50610188610bcb565b604051808273ffffffffffffffffffffffffffffffffffffffff1673ffffffffffffffffffffffffffffffffffffffff16815260200191505060405180910390f35b3480156101d657600080fd5b506101df610bf1565b604051808273ffffffffffffffffffffffffffffffffffffffff1673ffffffffffffffffffffffffffffffffffffffff16815260200191505060405180910390f35b34801561022d57600080fd5b50610236610c17565b6040518080602001828103825283818151815260200191508051906020019080838360005b8381101561027657808201518184015260208101905061025b565b50505050905090810190601f1680156102a35780820380516001836020036101000a031916815260200191505b509250505060405180910390f35b61032b600480360381019080803590602001908201803590602001908080601f01602080910402602001604051908101604052809392919081815260200183838082843782019150505050505091929192908035906020019092919080351515906020019092919080359060200190929190505050610cb5565b604051808215151515815260200191505060405180910390f35b34801561035157600080fd5b5061035a610da3565b604051808273ffffffffffffffffffffffffffffffffffffffff1673ffffffffffffffffffffffffffffffffffffffff16815260200191505060405180910390f35b3480156103a857600080fd5b506103b1610dc9565b60405180826000191660001916815260200191505060405180910390f35b3480156103db57600080fd5b506103e4610dcf565b6040518082815260200191505060405180910390f35b34801561040657600080fd5b5061040f6111d4565b6040518082815260200191505060405180910390f35b34801561043157600080fd5b5061043a6111da565b604051808273ffffffffffffffffffffffffffffffffffffffff1673ffffffffffffffffffffffffffffffffffffffff16815260200191505060405180910390f35b34801561048857600080fd5b506104ea6004803603810190808035906020019092919080359060200190820180359060200190808060200260200160405190810160405280939291908181526020018383602002808284378201915050505050509192919290505050611200565b604051808273ffffffffffffffffffffffffffffffffffffffff1673ffffffffffffffffffffffffffffffffffffffff16815260200191505060405180910390f35b34801561053857600080fd5b5061054161141a565b6040518082815260200191505060405180910390f35b34801561056357600080fd5b5061056c611420565b6040518082815260200191505060405180910390f35b34801561058e57600080fd5b50610597611426565b604051808215151515815260200191505060405180910390f35b3480156105bd57600080fd5b506105c6611439565b604051808215151515815260200191505060405180910390f35b3480156105ec57600080fd5b5061062f600480360381019080803573ffffffffffffffffffffffffffffffffffffffff169060200190929190803560001916906020019092919050505061144c565b005b34801561063d57600080fd5b506106466114f8565b604051808a1515151581526020018973ffffffffffffffffffffffffffffffffffffffff1673ffffffffffffffffffffffffffffffffffffffff1681526020018060200188815260200187151515158152602001868152602001851515151581526020018473ffffffffffffffffffffffffffffffffffffffff1673ffffffffffffffffffffffffffffffffffffffff168152602001838152602001828103825289818151815260200191508051906020019080838360005b8381101561071a5780820151818401526020810190506106ff565b50505050905090810190601f1680156107475780820380516001836020036101000a031916815260200191505b509a505050505050505050505060405180910390f35b34801561076957600080fd5b5061077261163f565b6040518082815260200191505060405180910390f35b34801561079457600080fd5b5061079d611645565b604051808273ffffffffffffffffffffffffffffffffffffffff1673ffffffffffffffffffffffffffffffffffffffff16815260200191505060405180910390f35b3480156107eb57600080fd5b506107f461166a565b005b600860029054906101000a900460ff1681565b600080600080600860019054906101000a900460ff1615151561082b57600080fd5b600c60009054906101000a900473ffffffffffffffffffffffffffffffffffffffff1673ffffffffffffffffffffffffffffffffffffffff166370a08231336040518263ffffffff167c0100000000000000000000000000000000000000000000000000000000028152600401808273ffffffffffffffffffffffffffffffffffffffff1673ffffffffffffffffffffffffffffffffffffffff168152602001915050602060405180830381600087803b1580156108e857600080fd5b505af11580156108fc573d6000803e3d6000fd5b505050506040513d602081101561091257600080fd5b81019080805190602001909291905050509250600360009054906101000a900473ffffffffffffffffffffffffffffffffffffffff1673ffffffffffffffffffffffffffffffffffffffff1663358177736040518163ffffffff167c01000000000000000000000000000000000000000000000000000000000281526004018080602001828103825260078152602001807f424f4e4441474500000000000000000000000000000000000000000000000000815250602001915050602060405180830381600087803b1580156109e757600080fd5b505af11580156109fb573d6000803e3d6000fd5b505050506040513d6020811015610a1157600080fd5b810190808051906020019092919050505091508173ffffffffffffffffffffffffffffffffffffffff1663b6105f15600260009054906101000a900473ffffffffffffffffffffffffffffffffffffffff16600a5460016040518463ffffffff167c0100000000000000000000000000000000000000000000000000000000028152600401808473ffffffffffffffffffffffffffffffffffffffff1673ffffffffffffffffffffffffffffffffffffffff16815260200183600019166000191681526020018281526020019350505050602060405180830381600087803b158015610afc57600080fd5b505af1158015610b10573d6000803e3d6000fd5b505050506040513d6020811015610b2657600080fd5b810190808051906020019092919050505090508083111515610b4757600080fd5b60095434141515610b5757600080fd5b33600460006101000a81548173ffffffffffffffffffffffffffffffffffffffff021916908373ffffffffffffffffffffffffffffffffffffffff1602179055506001600860016101000a81548160ff021916908315150217905550600860019054906101000a900460ff16935050505090565b600260009054906101000a900473ffffffffffffffffffffffffffffffffffffffff1681565b600360009054906101000a900473ffffffffffffffffffffffffffffffffffffffff1681565b60058054600181600116156101000203166002900480601f016020809104026020016040519081016040528092919081815260200182805460018160011615610100020316600290048015610cad5780601f10610c8257610100808354040283529160200191610cad565b820191906000526020600020905b815481529060010190602001808311610c9057829003601f168201915b505050505081565b6000600860029054906101000a900460ff16158015610cd45750600034115b1515610cdf57600080fd5b6001600860026101000a81548160ff0219169083151502179055503073ffffffffffffffffffffffffffffffffffffffff1631600981905550336000806101000a81548173ffffffffffffffffffffffffffffffffffffffff021916908373ffffffffffffffffffffffffffffffffffffffff1602179055508460059080519060200190610d6e929190611717565b50836007819055508160068190555082600860006101000a81548160ff02191690831515021790555060019050949350505050565b600460009054906101000a900473ffffffffffffffffffffffffffffffffffffffff1681565b600a5481565b6000806060600460009054906101000a900473ffffffffffffffffffffffffffffffffffffffff1673ffffffffffffffffffffffffffffffffffffffff163373ffffffffffffffffffffffffffffffffffffffff161480610e7c57506000809054906101000a900473ffffffffffffffffffffffffffffffffffffffff1673ffffffffffffffffffffffffffffffffffffffff163373ffffffffffffffffffffffffffffffffffffffff16145b1515610e8757600080fd5b600360009054906101000a900473ffffffffffffffffffffffffffffffffffffffff1673ffffffffffffffffffffffffffffffffffffffff1663358177736040518163ffffffff167c01000000000000000000000000000000000000000000000000000000000281526004018080602001828103825260088152602001807f4449535041544348000000000000000000000000000000000000000000000000815250602001915050602060405180830381600087803b158015610f4957600080fd5b505af1158015610f5d573d6000803e3d6000fd5b505050506040513d6020811015610f7357600080fd5b810190808051906020019092919050505091506001604051908082528060200260200182016040528015610fb65781602001602082028038833980820191505090505b509050600654600102816000815181101515610fce57fe5b9060200190602002019060001916908160001916815250508173ffffffffffffffffffffffffffffffffffffffff16637de7cc66600260009054906101000a900473ffffffffffffffffffffffffffffffffffffffff166005600a54856040518563ffffffff167c0100000000000000000000000000000000000000000000000000000000028152600401808573ffffffffffffffffffffffffffffffffffffffff1673ffffffffffffffffffffffffffffffffffffffff168152602001806020018460001916600019168152602001806020018381038352868181546001816001161561010002031660029004815260200191508054600181600116156101000203166002900480156111235780601f106110f857610100808354040283529160200191611123565b820191906000526020600020905b81548152906001019060200180831161110657829003601f168201915b5050838103825284818151815260200191508051906020019060200280838360005b83811015611160578082015181840152602081019050611145565b505050509050019650505050505050602060405180830381600087803b15801561118957600080fd5b505af115801561119d573d6000803e3d6000fd5b505050506040513d60208110156111b357600080fd5b8101908080519060200190929190505050600b81905550600b549250505090565b60065481565b600160009054906101000a900473ffffffffffffffffffffffffffffffffffffffff1681565b600080600b548414151561121357600080fd5b60003073ffffffffffffffffffffffffffffffffffffffff163111151561123957600080fd5b82600081518110151561124857fe5b90602001906020020151905060075481111515600860009054906101000a900460ff161515141561131b576000809054906101000a900473ffffffffffffffffffffffffffffffffffffffff1673ffffffffffffffffffffffffffffffffffffffff166108fc3073ffffffffffffffffffffffffffffffffffffffff16319081150290604051600060405180830381858888f193505050501580156112f1573d6000803e3d6000fd5b506000809054906101000a900473ffffffffffffffffffffffffffffffffffffffff1691506113c1565b600460009054906101000a900473ffffffffffffffffffffffffffffffffffffffff1673ffffffffffffffffffffffffffffffffffffffff166108fc3073ffffffffffffffffffffffffffffffffffffffff16319081150290604051600060405180830381858888f1935050505015801561139a573d6000803e3d6000fd5b50600460009054906101000a900473ffffffffffffffffffffffffffffffffffffffff1691505b806009548373ffffffffffffffffffffffffffffffffffffffff167f93744be23632b71c15fda59d4fcb485fc80f35677969b2262f752f3c26a12a8260405160405180910390a461141061166a565b8191505092915050565b60075481565b600b5481565b600860019054906101000a900460ff1681565b600860009054906101000a900460ff1681565b600160009054906101000a900473ffffffffffffffffffffffffffffffffffffffff1673ffffffffffffffffffffffffffffffffffffffff163373ffffffffffffffffffffffffffffffffffffffff161415156114a857600080fd5b80600a816000191690555081600260006101000a81548173ffffffffffffffffffffffffffffffffffffffff021916908373ffffffffffffffffffffffffffffffffffffffff1602179055505050565b6000806060600080600080600080600860029054906101000a900460ff166000809054906101000a900473ffffffffffffffffffffffffffffffffffffffff166005600754600860009054906101000a900460ff16600954600860019054906101000a900460ff16600460009054906101000a900473ffffffffffffffffffffffffffffffffffffffff16600654868054600181600116156101000203166002900480601f01602080910402602001604051908101604052809291908181526020018280546001816001161561010002031660029004801561161b5780601f106115f05761010080835404028352916020019161161b565b820191906000526020600020905b8154815290600101906020018083116115fe57829003601f168201915b50505050509650985098509850985098509850985098509850909192939495969798565b60095481565b6000809054906101000a900473ffffffffffffffffffffffffffffffffffffffff1681565b6000806101000a81549073ffffffffffffffffffffffffffffffffffffffff0219169055600460006101000a81549073ffffffffffffffffffffffffffffffffffffffff0219169055600560006116c19190611797565b600760009055600660009055600860006101000a81549060ff02191690556000600860016101000a81548160ff0219169083151502179055506000600860026101000a81548160ff021916908315150217905550565b828054600181600116156101000203166002900490600052602060002090601f016020900481019282601f1061175857805160ff1916838001178555611786565b82800160010185558215611786579182015b8281111561178557825182559160200191906001019061176a565b5b50905061179391906117df565b5090565b50805460018160011615610100020316600290046000825580601f106117bd57506117dc565b601f0160209004906000526020600020908101906117db91906117df565b5b50565b61180191905b808211156117fd5760008160009055506001016117e5565b5090565b905600a165627a7a72305820e09ab0081e048cb7d0a2d4c1c13cd3c5170fd07a5df2819af43cc6d344ce35bb0029",
  "source": "pragma solidity ^0.4.24;\nimport \"./ERC20.sol\";\n\ncontract ZapBridge{\n    function getContract(string contractName) public view returns (address); //coordinator\n    function calcZapForDots(address, bytes32, uint256) external view returns (uint256); //bondage\n    function delegateBond(address holderAddress, address oracleAddress, bytes32 endpoint, uint256 numDots) external returns (uint256 boundZap); //bondage\n    function query(address, string, bytes32, bytes32[]) external returns (uint256); //dispatch\n    function respondIntArray(uint256, string) external returns (bool); //dispatch\n}\n\n\ncontract priceBet {\n\n    address public player1;\n    address public owner;\n    address public provider;\n    ZapBridge public coordinator;\n    address public player2;\n    string public coin;\n    uint256 public expire;\n    uint256 public price;\n    bool public higher;\n    bool public taken;\n    bool public inplay;\n    uint256 public betAmount;\n    bytes32 public endpoint;\n    uint256 public id;\n    ERC20 token;\n\n    event Settlement(\n        address indexed _winner,\n        uint256 indexed _settlementAmount,\n        uint256 indexed _finalPrice\n    );\n\n    constructor(address _coordinator) {\n        owner = msg.sender;\n        taken = false;\n        inplay=false;\n        coordinator = ZapBridge(_coordinator);\n        address zapTokenAddress = coordinator.getContract(\"ZAP_TOKEN\");\n        token = ERC20(zapTokenAddress);\n    }\n\n    function setProvider(address _provider, bytes32 _endpoint){\n        require(msg.sender == owner);\n        endpoint = _endpoint;\n        provider = _provider;\n    }\n\n    ///Taker has to have enough zap approved to bond 1 dot for settlement\n    function takeBet() payable returns (bool){\n        require(!taken);\n        uint256 zapBalance = token.balanceOf(msg.sender);\n        address bondage = coordinator.getContract(\"BONDAGE\");\n        uint256 zapRequied = ZapBridge(bondage).calcZapForDots(provider,endpoint,1);\n        require(zapBalance>zapRequied);\n        require(msg.value == betAmount);\n        player2 = msg.sender;\n        taken = true;\n        return taken;\n    }\n\n    function makeBet(string _coin, uint256 _price, bool _higher,  uint256 _expire) payable returns (bool success)\n    {\n        require(!inplay && msg.value>0);\n        inplay=true;\n        betAmount= address(this).balance;\n        player1 = msg.sender;\n        coin = _coin;\n        price = _price;\n        expire = _expire;\n        higher = _higher;\n        success = true;\n    }\n\n\n    function getBetInfo() view returns (bool, address , string , uint256 ,\n        bool , uint256,  bool , address ,uint256){\n        return (inplay,player1,coin,price,higher,betAmount,taken,player2,expire);\n    }\n\n    //choice to query offchain or onchain provider\n    function queryProvider() returns (uint256) {\n        require(msg.sender == player2 || msg.sender == player1);\n        address dispatchAddress = coordinator.getContract(\"DISPATCH\");\n        bytes32[] memory params = new bytes32[](1);\n        params[0] = bytes32(expire);\n        id = ZapBridge(dispatchAddress).query(provider,coin,endpoint,params);\n        return id;\n    }\n\n    function reset(){\n        delete player1;\n        delete player2;\n        delete coin;\n        delete price;\n        delete expire;\n        delete higher;\n        taken=false;\n        inplay=false;\n    }\n\n    function callback(uint256 _id, int[] _response) returns (address winner){\n        require(_id==id);\n        require(address(this).balance>0);\n        uint256 _price = uint256(_response[0]);\n        if(higher==(_price>price)){\n            player1.transfer(address(this).balance);\n            winner = player1;\n        }\n        else{\n            player2.transfer(address(this).balance);\n            winner = player2;\n        }\n        emit Settlement(winner,betAmount,_price);\n        reset();\n        return winner;\n    }\n\n}\n",
  "sourcePath": "/home/kim/ZAP/cryptoTips/src/contracts/contracts/priceBet.sol",
  "compiler": {
    "name": "solc",
    "version": "0.4.24+commit.e67f0147.Emscripten.clang"
  },
  "schemaVersion": "2.0.1",
  "updatedAt": "2018-08-28T21:37:01.260Z"
}